:020000040000FA
:0600000002011A02285D56
:03002B00022FA8F9
:03003300022F8019
:03004B00022FCDB4
:030053000228D3AD
:03006B00022F5809
:100083000226B3E5C754F84401F5C77901220000FD
:100093000080FB120086B90003020104E479217891
:1000A30008B800028004F709D8FCE479297802B87B
:1000B30000028004F709D8FCE490028178097914DE
:1000C3008002F0A3D8FCD9FA781A90014A7A01BACF
:1000D30000028007E493A3F608DAF97A897B159086
:1000E300014B785D79048015E493A3AD82AE838AD6
:1000F300828B83F0A3AA82AB838D828E83D8E9D9C6
:10010300E77582457583EF740312012C758291752F
:100113008300740012012C75D00075813F7518811E
:10012300751902759F00020096C09FF59FE473D076
:100133009F22D083D082C09FE493C0E0740193C018
:10014300E0740293F59F2201FF0000B40000280031
:100153002800283075A000A000A000A0000008001F
:1001630008E001F000100010001000100010001053
:100173000050005000500010001000D00700000095
:100183000000000F0001000500307507001000019A
:100193000081FF00000000FFFFFFC906E706CF064E
:1001A3000B07FF02020208025000A0000000E80350
:1001B300020B83010000F382020783010000E415B0
:1001C300020383010000BF02020783010000E5155B
:1001D300020183010000D502020783010000E61536
:1001E30002FF82010000D702020783010000E71526
:1001F300020F83080000D802020783010000E815FC
:10020300021383010000E915FF0100FF20020B83A5
:10021300010000F6820207830100004D16021583D8
:10022300000000000002058303000006031700A17D
:100233000DA10DA10DA10DA10DA10DA10DA10DA14B
:100243000DA10DA10DA10DA10D5F1071105910028B
:100253000202020202020202010D0000001001026A
:100263000B83010000118202078301000090160234
:100273001783010000400702078301000091160263
:100283001983010000C28102078301000092160254
:100293001B830100007E8102078301000093160285
:1002A3001F83010000F880020783010000941602F7
:1002B30021830100002E81020783010000951602AD
:1002C30029830100001C81020783010000961602A6
:1002D3002783010000E680020783010000971602CE
:1002E30025830100009A810207830100009816020A
:1002F3002383010000991601E8030577100AFFFF25
:10030300FF00013075030201060000000000000039
:1003130000000000000000000000000000000000DA
:100323000000000000FFFF0600800CE80302010646
:100333000302F0FF48454C4C4F0000000000000052
:100343008115871599159F1593150A436861726185
:100353006374657269737469632031000243686171
:100363007261637465726973746963203200084350
:1003730068617261637465726973746963203300C1
:100383001043686172616374657269737469632091
:1003930034001443686172616374657269737469CC
:1003A300632035000A43686172616374657269731F
:1003B3007469632036001201000000000000000091
:1003C300000000000000000000000043686172614B
:1003D300637465726973746963203700020B830168
:1003E3000000F9820207830100008B17022F8303A9
:1003F30000005715023D830100008C17020783019B
:1004030000009D170231830100005815023D83014E
:1004130000009E17020783010000AF170233830217
:1004230000005915023D83010000B0170207830144
:100433000000C1170235830000005A15020583032B
:1004430000005B15023D83010000C2170207830110
:100453000000D3170237830200005D1502058303F2
:1004630000007115023D83010000D41702078301C8
:100473000000E5170239830300007315023D830171
:100483000000E617020783010000F717023B830110
:100493000000F8170205830300008715023D83015E
:1004A30000000C1812013544C80312013557C80364
:1004B30012013588C803120135C2C8031201351B66
:1004C300C90312013562C903120135AAC903120116
:1004D30035D9C90312013508CA031201353FCA03CE
:1004E30012013586CA031201359FCA03120135F47E
:1004F300CA031201350DCB031201355BCB03120185
:100503003595CB03120135E2D802120135E5D90244
:100513001201351EDA0212013541DA021201355396
:10052300DA0212013591DA021201350DDB021201F2
:1005330035D5DB02120135F7DB021201358EDC0201
:10054300120135E0DC0212013511DD021201351E04
:10055300DD0212013588DD02120135DFDD021201F1
:1005630035E2DD021201351BDE021201351EDE0209
:1005730012013528DE021201357CDE02120135BD7F
:10058300DE02120135F0DE021201352DDF02120107
:10059300352FE002120135D3E0021201353CE102AE
:1005A3001201357AE10212013593BC03120135BB06
:1005B300BC03120135E8BC0312013520BD0312014F
:1005C300357EBD03120135CABD0312013531BE03A9
:1005D30012013571BE03120135AEBE03120135DCC3
:1005E300BE0312013586BF0312013590BF0312010A
:1005F300359DBF03120135D0BF03120135DCBF03A4
:10060300120135F4BF03120135FEBF031201352871
:10061300FF0112013536FF011201354EFF011201B0
:100623003565FF01120135F06D001201359A6E0038
:10063300120135AD6F0012013529700012013547E3
:1006430071001201358371001201351E720012010F
:1006530035027300120135CE73001201355C75004B
:10066300120135CD750012013587760012013579F7
:100673007700120135B977001201356D7800120148
:10068300359F7800120135957A00120135D77A002B
:10069300120135F57A001201355B7B001201352A10
:1006A3007C00120135EE7C001201350D7F00120132
:1006B3003565F1021201354FF202120135FAF202E9
:1006C3001201354BF302120135FBF3021201356CB3
:1006D300F40212013551F50212013585F5021201BA
:1006E300357EF602120135BBF60212013597F70289
:1006F300120135D6F702120135F2F702120135D78E
:10070300DE031201355BDF0312013586DF031201BD
:1007130035A0E0031201358CC003120135A2C003DA
:10072300120135C0C003120135D1C103120135DBFB
:10073300C10312013506C303120135FDC3031201C0
:10074300356AC403120135DB8B03120135118D03A6
:10075300120135488D031201359F8D03120135B403
:100763008F031201357AAB0112013506AC01120178
:10077300356AAD0112013576AD01120135B1AD0116
:1007830012013520AE0112013529AF0112013532B4
:10079300B001120135F9B00112013556B20112014F
:1007A3003574B20112013591B2011201353EB30124
:1007B300120135BBB301120135E3B301120135ADAB
:1007C300B601120135B2B601120135CBB8011201DF
:1007D3003519B90112013589B901120135C7B901BA
:1007E300120135A3BA0112013563BB01120135AF02
:1007F300BB01120135B2BB01120135F6BB01120177
:10080300353EBC011201357DBC011201359FBC018F
:10081300120135D3BC0112013536BD01120135BBBE
:100823009B03120135C99B031201351C9C03120162
:10083300353B9C03120135809C03120135C49D0393
:100843001201355F9E03120135A39E03120135CDBC
:100853009E031201353C9F03120135829F0312014F
:1008630035F99F03120135AAA00312013514300094
:10087300120135243000120135C530001201352133
:100883003100120135DE3100120135FA3200120156
:10089300352C33001201355B330012013508350066
:1008A3001201357F3700120135EF3900120135E1AE
:1008B3003A00120135DA3B00120135E13D00120125
:1008C30035D54000120135044200120135084400B9
:1008D300120135184500120135A74600120135985B
:1008E3004700120135E64700120135554800120151
:1008F30035794800120135CA48001201356B4D00A5
:100903001201356C4E00120135CD4E00120135F83F
:100913004E00120135BE4F00120135A99603120194
:1009230035B39603120135F896031201350C97037C
:100933001201359C9703120135D597031201351027
:1009430098031201353998031201358D980312016A
:1009530035A29803120135C49803120135D99803BF
:10096300120135ED98031201350299031201353C4A
:1009730099031201356899031201359699031201FF
:1009830035E19903120135439A03120135B59A03F0
:10099300120135FB9A031201353E9B0312013568A0
:1009A3009B03120135939B031201356AEB0312017A
:1009B300355EB10212013541B202120135BCB202F9
:1009C300120135F7B20212013548B402120135D6CD
:1009D300B40212013568B7021201351AB8021201C6
:1009E3003526B90212013599BA02120135F2BA025B
:1009F30012013501B40312013544B403120135C8A1
:100A0300B4031201359FB70312013522D803120133
:100A130035D4D803120135D0D9031201350FDA03C7
:100A230012013569DA03120135A1E203120135041B
:100A3300E303120135A1E303120135D6E3031201E7
:100A43003506E40312013541E40312013561E40381
:100A5300120135B7AA0312013543AB031201350264
:100A6300AC031201351AAD0312013534AF03120181
:100A730035CA9A02120135EF9A02120135BC9B0264
:100A8300120135909C02120135FD9C021201353D85
:100A93009D02120135D99D021201350D9F021201EB
:100AA30035E89F0212013547A002120135D3A00297
:100AB30012013541A102120135CDA10212013513F4
:100AC300A20212013585A20212013517A3021201F7
:100AD30035B8A302120135D8A30212013520A402AE
:100AE30012013569A40212013585A402120135AB46
:100AF300A40212013525A50212013533A502120104
:100B030035C2A5021201352BA6021201356BAF03C4
:100B1300120135F0AF0312013532B003120135165D
:100B2300B10312013583B103120135C7B1031201B9
:100B3300350BB20312013538B20312013560B2032B
:100B430012013598B203120135D6B203120135FDF5
:100B5300B20312013577B303120135C1B303120196
:100B6300350EBE01120135ADBF01120135E5C101DC
:100B730012013539C20112013564C2011201354037
:100B8300C30112013570C3011201359FC301120164
:100B930035B2C301120135F3C30112013520C4017B
:100BA3001201356EC401120135AAC401120135EFD9
:100BB300C4011201353CC501120135B6C50112014C
:100BC30035F7C701120135E1C9011201351DCA010B
:100BD300120135ACCB01120135F1CB0112013564A1
:100BE300CC01120135B9CC01120135BECC01120181
:100BF3003567CD0112013533CE01120135BDCE016A
:100C030012013549CF0112013568D001120135793E
:100C1300D00112013543CF02120135BCCF021201BC
:100C23003576D50212013581D6021201352AD80252
:100C3300120135B8D802120135408301120135C1C2
:100C43008301120135EE830112013537840112014C
:100C5300353885011201357C8501120135B28501D4
:100C63001201352E8701120135B08701120135CBF0
:100C730087011201353C8801120135F988011201FF
:100C830035BC89011201354A8A01120135018B01F4
:100C9300120135148B01120135AD8B01120135445C
:100CA3008C011201356B8C01120135D48C011201B8
:100CB300351E8D011201356C8D01120135118E0126
:100CC300120135AF8E011201353C8F01120135AD92
:100CD3008F01120135F48F011201354C900112017D
:100CE300357E90011201353891011201353F920191
:100CF300120135889201120135A59201120135C402
:100D03009201120135F79301120135AE94011201DC
:100D130035D39401120135E8940112013558950138
:100D2300120135999501120135BD96011201353E27
:100D3300970112013583C502120135CEC502120196
:100D430035DAC502120135AEC602120135C5C60237
:100D530012013502C70212013533C7021201356B86
:100D6300C702120135C1C702120135D7C7021201EA
:100D73003513C80212013526C8021201354DC802C7
:100D830012013581C802120135A7C902120135F1DA
:100D9300CA02120135EDCB021201350ACD0212014E
:100DA30035F5FF01120135BEE201120135F9E20109
:100DB3001201354BE601120135A7E7011201356631
:100DC300E801120135CDEB01120135B7EC01120137
:100DD3003503ED011201351DED011201355AED0107
:100DE30012013565ED01120135A4ED01120135AD96
:100DF300ED0112013557EE011201352EEF011201FB
:100E03003582EF01120135DFEF0112013551F00197
:100E13001201359CD001120135FBD30112013501BA
:100E2300D40112013532DB0112013539DF01120120
:100E330035FDCB0312013593CC03120135A9CC0345
:100E430012013502CD0312013546CD03120135805F
:100E5300CD0312013518CE0312013587CE031201DB
:100E63003590CE031201359CCE03120135B6CE0365
:100E7300120135E0CE03120135F5CE0312013557C9
:100E8300CF031201357ECF0312013551B80312018E
:100E9300355EB80312013578B803120135ABB803D8
:100EA300120135E9B8031201354EB9031201356356
:100EB300B9031201356EB9031201357BB90312016F
:100EC3003592B903120135A0B903120135ABB90349
:100ED300120135B7B903120135C6B903120135D171
:100EE300B903120135F4B90312013598BA0312019B
:100EF30035A8BA03120135C2BA03120135DFBA03AA
:100F0300120135FABA031201351FBB031201352A48
:100F1300BB031201353FBB0312013553BB0312015F
:100F230035B4BB03120135BABB03120135C0BB0391
:100F3300120135C6BB03120135DEBB0312013511A5
:100F4300BC03120135A5F1011201353CF201120176
:100F530035D4F201120135C4F301120135FBF3015B
:100F63001201350EF4011201357CF401120135171B
:100F7300F6011201353EF601120135E0F6011201C8
:100F83003515F70112013526F7011201359FF701D7
:100F9300120135C0F701120135D8F70112013530BE
:100FA300F90112013539FB0112013589FD011201E5
:100FB300358CFE01120135DBFE0112013500800282
:100FC300120135FD8002120135E88102120135F26A
:100FD30081021201351482021201352082021201AC
:100FE30035728302120135A18302120135D18402C5
:100FF3001201351385021201353F860212013515A0
:101003008702120135678702120135C68702120172
:1010130035FD8702120135388802120135D38B0260
:10102300120135EC8B021201356E8C021201357CF4
:101033008C02120135D18C02120135DF8C021201B0
:10104300354C8D02120135BE8D02120135048E021C
:101053001201354EA60212013570A6021201355A4D
:10106300A802120135FFAB0212013542AD02120193
:10107300351CAE021201356FE40312013594E4030B
:1010830012013505E503120135A0E102120135A96C
:10109300E102120135B2E102120135E3E20212016B
:1010A3003502E50212013538E50212013572E50217
:1010B300120135A8E502120135E2E50212013516E7
:1010C300E60212013542E6021201358BE6021201F5
:1010D30035C5E6021201350DE70212013563E70259
:1010E30012013598E702120135F3E7021201352D9B
:1010F300E8021201357EE802120135B4E80212015A
:1011030035EEE8021201351CE9021201353FE9020E
:101113001201352AFF0212013556FF02120135B1C1
:10112300FF02120135BBFF02120135CBFF02120190
:1011330035BCA003120135E3A0031201351EA10340
:10114300120135B5EE031201352A50001201353A6A
:101153005300120135CF54001201354A55001201D4
:1011630035F65500120135995600120135315700F5
:10117300120135605700120135F85B001201358A00
:101183005C00120135C65D00120135305E001201AC
:1011930035E45E001201359A6100120135D4610015
:1011A3001201353E62001201359B6200120135F8CF
:1011B30062001201355563001201354064001201CB
:1011C30035866400120135D16400120135F46400E0
:1011D3001201353B66001201354F6600120135BE20
:1011E3006700120135FD67001201353D68001201E9
:1011F30035906800120135B16800120135EF6800BF
:101203001201352D6B001201356E6B001201350989
:101213006C001201357B6C00120135BC6D001201AC
:10122300353A8603120135E086031201352588031A
:10123300120135AE88031201359B8903120135DA99
:101243008903120135448A03120135B28A0312015C
:10125300357EEC031201358FEC031201356AED0381
:10126300120135B1D2031201357CD5031201351BAE
:10127300F0031201350FE9031201351FE9031201CF
:101283003539E90312013541EA03120135ACCF03C5
:1012930012013554D00312013596D203120135CF12
:1012A300E003120135F6E0031201355AE10312019E
:1012B300357CE103120135D8E10312013553E20312
:1012C30012013590E20312013593E203120135BA9C
:1012D300A503120135DCA50312013572A603120121
:1012E3003570A703120135D0A90312013530AA03C3
:1012F30012013599AA031201357B9103120135ECD2
:101303009103120135D6920312013525930312017D
:10131300359E9303120135049503120135F87F00BE
:1013230012013594DA031201356EDC03120135DA4A
:10133300DC0312013544EA031201359BEA0312016F
:101343003538F0031201353FF0031201351DEE036A
:1013530012013596EE0312013525E60312013556C7
:10136300E60312013580E603120135DEE6031201BE
:1013730035CDE902120135E2E9021201353EEA02F6
:10138300120135A9EA02120135F1EA0212013563AD
:10139300EB021201358CEB021201359AEB021201BA
:1013A30035FCEB021201353AEC0212013555EC0221
:1013B300120135F0EC0212013599ED021201351CD0
:1013C300EE0212013555EE02120135E0EE02120172
:1013D3003537EF0212013595EF02120135A7EF02FF
:1013E300120135CDEF02120135D6EF02120135316C
:1013F300F102120135DDDC0312013544DD03120174
:101403003501DE031201357FDE0312013574C40397
:10141300120135A7C403120135D9C5031201351DC5
:10142300C603120135F9C603120135D5E7031201CC
:1014330035B3E8031201358AD503120135CFD5033D
:1014430012013515D603120135DED7031201351A01
:101453007F00120135357F00120135457F001201EF
:1014630035AA7F001201357AED031201359BBB02C9
:1014730012013577BC02120135BEBC02120135FBE5
:10148300BC0212013569BD02120135C3BD0212014E
:101493003533BE0212013503BF02120135F2BF021A
:1014A30012013569C00212013505C20212013592DB
:1014B300C20212013505C30212013581C3021201B2
:1014C3003598C302120135BDC40212013517C50296
:1014D30012013500800312013520800312013526E5
:1014E30081031201357281031201359281031201C6
:1014F30035E58103120135528203120135988203C7
:10150300120135FC8203120135A885031201352926
:101513008603120135749701120135A19C01120152
:1015230035A49F01120135CD9F01120135F69F01AC
:10153300120135A8A00112013591A201120135DC77
:10154300A301120135F5A3011201352CA9011201E2
:101553003565A901120135A9A901120135BAAA01FC
:101563001201358D8E02120135C18E021201353002
:10157300930212013530950212013565950212016D
:1015830035879502120135AE9602120135B19602E6
:10159300120135E19602120135889702120135AA2C
:1015A30097021201352998021201352C9802120173
:1015B300353AEF0312013553F802120135FAF802F6
:1015C30012013517F9021201359AFA021201358414
:1015D300FB0212013512FD02120135A9EF031201BC
:1015E30035EFEF03120135D5FF02E066701008A353
:1015F300E066700A08A3E066700408A3E06622C3ED
:10160300E7960809E7960809E7960809E79622C3CB
:10161300E09608A3E09608A3E09608A3E09622C00C
:1016230008C3E096F50808A3E096420808A3E096ED
:10163300420808A3E09645087001D3D00822E9794F
:101643009EC608CAC608CBC608CCC6C37020799606
:10165300CACBCC7019798ECBCC70137986CC700E33
:10166300F9802ACA33CACB33CBCC33CC331930E716
:10167300F2CCCBCA3350147004EA30E00DE4CA3A1A
:10168300CACB3BCBCC3CCC500209C3E913C6CC1824
:101693002313C6CB18C6CA18C6F9221216DE20F0C9
:1016A3001430E72B74FFFCFBFA747F8022E4FCFB0D
:1016B300FA7480801AB48008BC00F2BB00EF800F7C
:1016C30050EBF9E4C39AFAE49BFBE49CFCE499C66F
:1016D300CC18C6CB18C6CA18C6F922E4C9C608CAAC
:1016E300C608CBC6D3330308CCC63392F0C3947F6A
:1016F300402E94184019C9B90704CACBCC225025EF
:10170300C309CA33CACB33CBCC33CC33D9F422F499
:10171300600DC9CCC313CB13CBCA13CAD9F6CC22E1
:10172300E4FCFBFA2214FCFBFA22E62618461846D0
:10173300184622E72719471947194722181818E6A8
:101743000846087009E626087005E633F4220822E5
:10175300191919E70947097009E727097005E733DC
:10176300F4220922E6084608C3134608336002E65A
:1017730033F422E7094709C3134709336002E73308
:10178300F422121767601C121776601712172D7058
:10179300071217367001D322C0D01217367006D045
:1017A300D0B322C32233D0D0501430E0F6C3E7962F
:1017B3000809E7960809E7960809E796B32220E0A7
:1017C300D5E6970809E6970809E6970809E697B367
:1017D3002200121767604F1217766012E754806673
:1017E300F612173F7011121736703B090909F4F608
:1017F30018F618F618F622121753701512172D083B
:10180300080860EAE6447FF618768018E4F618F6CE
:101813002212172D60161217367012E4F608F60816
:10182300F608E65480F609090918181822EAC0E0F8
:10183300EBC0E0ECC0E0EDC0E0E687F0A4FBACF069
:1018430008E687F0A42CFCE435F0FA1809E687F0E3
:10185300A42C4B60027401CA35F0FCE433FB09E6A7
:1018630087F0D2F7A42CCB35F0FC1908E687F0A457
:101873002BCC35F0FBE433FD0819E687F0D2E7A45F
:101883002C4ACB35F0CD3400FC09E687F0D2E7A42F
:101893002DCC35F0FDE433FA0918E687F0D2F7A42E
:1018A3002CCD35F0CA3400FC08E687F0D2E7D2F736
:1018B300A42ACC35F07A7E20E70B0ACB33CBCD3389
:1018C300CDCC33CC33CB3350147004ED30E00ED297
:1018D300F1E4CD3DCDCC3CCC3B5005DA05C2F1EB78
:1018E300547FC63308E63392F0FBE73309E733C38B
:1018F3009A502D2B70190C0D4C4D70151806E608D7
:10190300C333700D20F10AA2F013F6E418800B40E4
:1019130024E4F630F002768018F618F618F68024E0
:10192300D33B14501074FFA2F013F6187680E4181A
:10193300F618F6800FA2F013F618E63303F618EC48
:10194300F618EDF6D0E0FDD0E0FCD0E0FBD0E0FAF5
:1019530022121767700418181822121776700D7464
:10196300FFF61819F61819F61819F622E7548066C7
:10197300F612172D700F12173670F014F608F608CA
:10198300F608F680D1121736700CF608F608768042
:1019930008E6447F80EC121756700C12174260BFA2
:1019A300E65480F6E480BB121742700519191980BA
:1019B300A5E869700C763F18768018F618F6E8F9F2
:1019C30022E6CDC0E018ECC0E0E633CD33CDD3132F
:1019D300F6E719FCE7191933CC33C3947F400ECDD6
:1019E3009D502408E65480F6E418F6800FF4043D75
:1019F30014501408E6447FF6187680E418F618F6B7
:101A0300D0E0FCD0E0FD22CCD313CCFD18E4C6CB50
:101A1300C0E018E4C6CAC0E00808ED08C633E61300
:101A2300F618E433C675F003C3CA97CA09CB97CB3C
:101A3300199C40047D08802EBD0003021AFD16B6D2
:101A4300FF050606081618C3CA33CACB33CB33CAFD
:101A530027CA09CB37CB193CC37D08803E187D08C4
:101A630020E75CC633C6CA33CACB33CB33DDF1D5EB
:101A7300F0EB30E77BCA97CA09CB974ACB199C4056
:101A83006F4B7025E620E0218066187D08C3CA9756
:101A9300CA09CB97CB199CD3C633C6CA33CACB3337
:101AA300CB3350C9DDE7D5F0E1D3E4C636C608C66B
:101AB30036C608C636C608C636C61818188031C3D7
:101AC300CA97CA09CB97CB199CB34097C633C6CAEA
:101AD30033CACB33CB33DD34D5F02EC6A2E0C640B8
:101AE300C8CA27CA09CB37194A70BECB3CB480B9E0
:101AF3000808E63308E633601F181818D0E0FAD058
:101B0300E0FBD0E0FCD0E0FD22187D08CA27CA091B
:101B1300CB37CB193CD3808013F618E4B67F11F68C
:101B230018B6FF0EF618C60470D20808768080CA6D
:101B3300F618F618F680C5080808EAC0E0EBC0E01E
:101B430086F0E7A4FA180986F0E7A42AFA180986AA
:101B5300F0E7A42AFA180986F0E7A42AFA1986F00E
:101B6300E7A4FBE5F02AFA190886F0E7A42BFBE5C6
:101B7300F03AFA190886F0E7A42BFBE5F03AFA18D5
:101B8300180986F0E7A4C5F02BFBE43AFA1908E735
:101B9300C5F0C6A426F6E5F03BFBE43AFA1886F056
:101BA300E7A4F6E5F00826F6E43B08F6E43A08F67F
:101BB300D0E0FBD0E0FA22E4CFC0E0E4CEC0E0E422
:101BC300CDC0E0E4CCC0E075F020E626F608E633AD
:101BD300F608E633F608E633F6181818EC33FCED8E
:101BE30033FDEE33FEEF33FFC3EC9709ED9709EEB8
:101BF3009709EF97191919400FFFEC97FC09ED9717
:101C0300FD09EE97FE191906D5F0BFECF709EDF7BC
:101C130009EEF709EFF7191919D0E0FCD0E0FDD070
:101C2300E0FED0E0FF226016080808C6C313C618FA
:101C3300C613C618C613C618C613C6D5E0EA227063
:101C430009080808226016181818C6C333C608C640
:101C530033C608C633C608C633C6D5E0EA22E6272C
:101C6300F60809E637F60809E637F60809E637F60F
:101C730022E026F608A3E036F608A3E036F608A32A
:101C8300E036F622E026F008A3E036F008A3E036BB
:101C9300F008A3E036F022C3E697F60809E697F6C4
:101CA3000809E697F60809E697F622C3E096F008D6
:101CB300A3E096F008A3E096F008A3E096F022E0F4
:101CC30056F608A3E056F608A3E056F608A3E05636
:101CD300F622E056F008A3E056F008A3E056F00819
:101CE300A3E056F022E0F608A3E0F608A3E0F60826
:101CF300A3E0F622E6F008A3E6F008A3E6F008A3C3
:101D0300E6F022E0FAA3E0FBA3E0FCA3E0FD22E07F
:101D1300F8A3E0F9A3E0FAA3E0FB22E8F0A3E9F0DB
:101D2300A3EAF0A3EBF022CAC0E0E6F0A308DAFAD4
:101D3300D0E0FA22CAC0E0E0A3C582CCC582C58345
:101D4300CDC583F0A3C582CCC582C583CDC583DA57
:101D5300E6D0E0CA22C3E498F8E499F9121D998009
:101D630026C3E49AFAE49BFBE920E7E9121D99E410
:101D730098F8E499F922C3E498F8E499F9121D99C3
:101D8300E498F8E499F9C3E49AFAE49BFB22EB2084
:101D9300E7CFE920E7E0B90010BB0008E88AF08448
:101DA300F8AAF022E4FBC8FA22EB70227B10C833B6
:101DB300C8C933C9335007C39AC3DBF280069A50AC
:101DC300012ADBEAC833F4C8C933F4C9FA2275F02F
:101DD30008E4C833C8C933C933C99AC99B5004C975
:101DE3002AC93BD5F0ECFBC833F4C8E4C9FA226036
:101DF3000D08C6A2E713C618C613C6D5E0F32260C2
:101E03000C08C6C313C618C613C6D5E0F422700463
:101E130022600D18C6C333C608C633C6D5E0F4180E
:101E230022251810AF08F518400C15198008F5186D
:101E330040021519D2AF2200C0D0251810AF08F503
:101E430018500C05198008F51850020519D2AFD0A7
:101E5300D0222518F58210AF08F518400C1519800B
:101E630008F51840021519D2AF851983222518F5F4
:101E730082E43519F583222518F8E43519F922256A
:101E830018FAE43519FB222518FCE43519FD22E480
:101E9300732518C582C0E0E51934FFC583C0E0E5AA
:101EA30018C3958224F810AF08858319858218809A
:101EB30008858319858218D2AFCEF0A3E520F0A35D
:101EC3007808E608F0A3DEFAEFF0A3E58124FAF838
:101ED300E608F0A3E608F0A3E608F0A30808E6087E
:101EE300F0A3E608F0A315811581D0E0FED0E0F859
:101EF300158115811581E8C0E0EEC0E0222518C5E3
:101F030082C0E0E51934FFC583C0E0E518C39582BC
:101F130024F910AF088583198582188008858319F1
:101F2300858218D2AFCEF0A3E520F0A37808E608A7
:101F3300F0A3DEFAEFF0A3E58124FBF8E608F0A3B3
:101F4300E608F0A30808E608F0A3E608F0A3158165
:101F53001581D0E0FED0E0F815811581E8C0E0EEF0
:101F6300C0E022851983851882E0A3FEE0A3F52053
:101F73007808E0A3F608DFFAE0A3FFE0A3C0E0E0FF
:101F8300A3C0E0E0A3C0E0E0A3C0E0E0A3C0E01092
:101F9300AF0885821885831980088582188583197F
:101FA300D2AFD083D082020132851983851882E0B3
:101FB300A3FEE0A3F5207808E0A3F608DFFAE0A388
:101FC300FFE0A3C0E0E0A3C0E0E0A3C0E0E0A3C063
:101FD300E010AF08858218858319800885821885EB
:101FE3008319D2AFD083D08222C0D02518C582C036
:101FF300E0E51934FFC583C0E0E518C3958224F3F7
:1020030010AF088583198582188008858319858216
:1020130018D2AFC8F0A3E9F0A3EAF0A3EBF0A379D9
:1020230008E709F0A3D8FAECF0A3EDF0A3EEF0A3D0
:10203300EFF0A3D0E0F0A3D0E0F0A3D0E0F0A3E56D
:1020430020F0A3E5F0F0A322851983851882E0C070
:10205300E0A3E0F9A3E0FAA3E0FBA37808E0F60825
:10206300A3DFFAE0FCA3E0FDA3E0FEA3E0FFA3E00F
:10207300C0E0A3E0C0E0A3E0F5D0A3E0F520A3E037
:10208300A3F5F010AF08858319858218800885832E
:1020930019858218D2AFD082D083D0E0F8D0E03255
:1020A30074048006740280027401C0E0F404121EFA
:1020B30055D0E0121D2A227404800474028000CCDF
:1020C300C0E0EDC0E0E518C39CCCAD1950011D1074
:1020D300AF068C188D1980068C188D19D2AF121D7E
:1020E30037D0E0FDD0E0FC22D083D082E9C0E0E429
:1020F30093A3C386F0C5F095F0F908E493A386F0A3
:10210300C5F095F0700BE493A3C3994005E90480EF
:1021130002A3E475F002A42582F582E5F03583F588
:1021230083D0E0F9E493A3C0E0E493C0E022D0833A
:10213300D082ECC0E0EDC0E0E493A3FCE493A3FD04
:10214300ED4C600D12217DEC24FFFCED34FFFD808E
:10215300EFE493A3FCE493A3FDED4C600D1221BCCB
:10216300EC24FFFCED34FFFD80EFD0E0FDD0E0FC7C
:10217300E493A3C0E0E493C0E022C0E0C3E49396F9
:10218300087401939618400FE4936670080874016D
:1021930093661870007019A3A3C3E493960874019F
:1021A300939618A3A3400DD0E0D0E0D0E002216DB8
:1021B300A3A3A3A3A3A3D0E022C0E0C0F088F0E4CC
:1021C300936670080874019366187000A8F0A3A3BF
:1021D300700BD0F0D0E0D0E0D0E002216DA3A3D00B
:0421E300F0D0E02236
:1021E80074F6121F00EAFEEBFF8C088D09EE24340A
:1021F800F8E43FF9E8FCE9FDEE24351224FBFAEE99
:1022080024371224FBF88508F0A4C885F00A85094C
:10221800F0A4250AF9EA28F8E439F97A257B0012AE
:102228001D99EA8C828D83F0FA131313541FF8EE6C
:1022380028F8E43FF9E8245DF582E439F583E0C045
:10224800E074075AF8D0E0B800028004C313D8FC41
:10225800A2E0EE50082434F582E43F8018243612B8
:1022680024FBF5F0EA84A8F0EE28F8E43FF9E82426
:1022780038F582E439F583E0F97F03021FAC74F77F
:10228800121F00EAFEEBFFEE24341224FBC0E0EE3E
:102298002435F582E43FF583D0E0F08E828F83A366
:1022A800A3A3A3A3A3A3C082C0838E828F83A3A367
:1022B800A3A3A3E0F8A3E0F9D083D082E0C398F504
:1022C80008A3E099F509EE247F1224FB6401703E0F
:1022D800EE2480F582E43FF583C082C0838E828F2E
:1022E80083A3A3A3A3A3E0240108A3E03400F9D0A7
:1022F80083D082E0687003A3E06970127CB17D042A
:10230800120CE1EE247FF582E43FF583E4F0AC089B
:10231800AD09EEFAEFFB1221E8E9F9122F4A7F0224
:10232800021FACC082C083851882851983E0F8A398
:10233800E0F9C3EA9CEB9D5010C3EC98ED99401B63
:10234800C3EA98EB995014800EC3EA98EB994007BA
:10235800C3EC98ED994004790180027900D083D0CC
:102368008222EAC39CFAEB9DFB2274EF121F0090B5
:102378000376E064086005E06407702A9061C8E0AD
:1023880060249003A4E0F4601DE0F875F00BA4C885
:10239800AAF02AF974A628FE740339FF8E828F8367
:1023A800A3A3A3E07003022480906060E0C0E0EE85
:1023B8002468F582E43FF583D0E0F0750C21750DB3
:1023C80005750800750900E5D914F50AE5D954031F
:1023D800F50E60127403650E6043E50A600AEE2488
:1023E800671224FB7002807590051CE06401601F71
:1023F8001224F860047A0480027A00E50AC39AFA83
:1024080095E0FB120B738A088B09EA4509700512DF
:102418000F2780641224F870048A0C8B0DE50A607B
:1024280012850C82850D83F50BE5D9F0A3150BE514
:102438000B70F61224F8604474FC250AF50A780C2F
:102448001220A7AC0AA90EEEFAEFFB120D9B74023C
:10245800121E3AE97026AA08AB091213FB793D8EC1
:10246800828F83A3A3A3A3E0FA7B001209D5EEFA17
:10247800EFFB120D05120DAD7900806F7403650E28
:102488006051850A1075110078101220A7AC0CADA8
:102498000DAA08AB09120D5F7402121E3AEE2468E9
:1024A8001224FB64807004747F8001E0F50C780CC2
:1024B8001220ABE50EF50C780C1220ABA90AAC087B
:1024C800AD099003A4E0FA7B001209AB7402121E56
:1024D8003A8013900376E06408600BAC0CAD0DEE07
:1024E800FAEFFB120E25120F3379017F0A021FAC97
:1024F800EE2483F582E43FF583E02274F2121F0094
:1025080074FC121E24EAFEEBFF8909A2AFE433F53E
:1025180008C2AF0225CDE0601B780C1220A7AC0BD7
:10252800A90EEEFAEFFB120D957402121E3A74040E
:10253800250BF50B7401250BF5D9850ED9E50B6034
:1025480018F50A850C82850D83E0F5D9A385820CE0
:1025580085830D150AE50A70EA75E195EE2463F89E
:10256800E43FF97A007B00A2AFE433F50BC2AF88F1
:10257800828983E0FCA3E0FDEC4D603A8882898380
:10258800E0FAA3E0FB8A828B83E0FCA3E0FD88826B
:102598008983ECF0A3EDF08A828B83E4F0A3F088C2
:1025A800828983E0FCA3E0FDEC4D700A8882898370
:1025B800A3A3E4F0A3F0E50BA2E092AF1213FB9003
:1025C80004B8E004F0EE24631224FBF8A3E0F9E871
:1025D800496064EE24631224FB2402F8A3E034006B
:1025E800F988828983E5822402F50CE43583F50DA8
:1025F800E0F50BA3E0F50EEE24621224FB640170F3
:10260800369061D0E0F81224F860047C0480027CE3
:10261800007480C398FA95E0FBE50B2CF8E43400CD
:10262800F9E82402F8500109C3EA98EB99A2D265A7
:10263800D033400302251E9004B8E0604D9004B9E1
:10264800E0F89004B8E0C398500C74026509703A39
:102658009004BAE060348E828F83A3A3A3A3E0859D
:1026680018828519831226A27402121E70E8122697
:10267800A29004B7E028F07402121E8AAA18AB19B7
:1026880079011209FF9004B8E4F0E508A2E092AFDE
:102698007404121E3A7F07021FACF0A3E4F0900402
:1026A800B8E0F8228521878522C622C0E074EB12A3
:1026B8001FECA2AFE433F508C2AF759B00906182AE
:1026C800E0A2E05030E591A2E0502A7591FE740135
:1026D80065217021122846120E731228341220BA6E
:1026E800122CF47404121E3AE9640170057901127F
:1026F8000EBB122372906182E0A2E5505DE591A2C3
:10270800E550577591DF900376E064076005E06453
:1027180008702F12284674016521703E120E73123C
:1027280028341220BA122CF47404121E3AE96401F7
:1027380070057901120EBB7901EEFAEFFB12250341
:102748008018E0640D7013900398E004F06428701A
:1027580002E4F07A00E0F9120F39906182E0A2E613
:102768004003022809E591A2E64003022809759171
:10277800BF900376E064057008120E5B120E678046
:1027880003120E61752100120EC7E9900377F079E4
:1027980000120EBB120C4B7A017B00900375E0F916
:1027A8001213CB907803E064427056900520E01431
:1027B800F0704EC2AF1227C000782AD0E0F618D0C9
:1027C800E0F6E59F5407F87005750DFF8003750D59
:1027D8007FC4C0E07829E6F50A08E6550DF50B74C4
:1027E8000B780A121E02D0E0250AF8906270E0A267
:1027F800E740F8E8C333906272F0906270E0D2E08C
:10280800F0906181E0A2E35009E5E9A2E350037585
:10281800E9F7A3E0A2E75009E591A2E75003759113
:102828007FE508A2E092AF7F0802204B8E828F835B
:10283800E0F8A3E0C82416F582E438F58322900373
:10284800A4E0F875F00BA4C8AAF02AF974A628FE2B
:10285800740339FF22C0E0C0D0C082C08390618376
:10286800E0A2E05009E5BFA2E0500375BFFEE0A278
:10287800E15009E5BFA2E1500375BFFDE0A2E250B7
:1028880009E5BFA2E2500375BFFBE0A2E35009E5EA
:10289800BFA2E3500375BFF7E0A2E45009E5BFA269
:1028A800E4500375BFEFE0A2E55009E5BFA2E5508B
:1028B8000375BFDFE0A2E65009E5BFA2E650037545
:1028C800BFBFD083D082D0D0D0E032C0E074F21243
:1028D8001FECE5A7A2E6500FE5A1A2E6500953A711
:1028E800BF75A1BF122927E5A7A2E5500CE5A1A253
:1028F800E5500653A7DF75A1DFE5A7A2E15009E57A
:10290800A1A2E1500375A1FDE5A7A2E2500CE5A143
:10291800A2E2500653A7FB75A1FB7F0102204B746E
:10292800F7121F00752101900376E06406701512F6
:102938000DD18A828B83A3A3A3A3A3A3E0FAA3E068
:10294800FB120E49A2AFE433FED2AF90037CE064E1
:102958000170187A207B00900375E0F91214F77A59
:10296800207B00900375E0F91213D1906182E0D2C8
:10297800E6F090051DE0602185C622801690037B55
:10298800E064017008E5C654F84405F5C653BEFC7A
:102998001226AC7401652160E4EEA2E092AF7F02DA
:1029A800021FAC008E238F248582288583278518F3
:1029B80082851983E0CEA3E0CF852882852783EB23
:1029C800C9EAC8EDCBECCA75F010C3E833C8E933DF
:1029D800C9EA33CAEB33CBC3EA9EF526EB9FF5254C
:1029E800B35004AB25AA26EC33CCED33CDD5F0DAC1
:1029F800AE23AF242274E9121F0074FA121E24EACF
:102A0800FEEBFF8C0A8D0B120E7FEAF8EBF9ECFA5D
:102A1800EDFB8E828F83121D1E900376E024F7C390
:102A280094055006751401022B64120DD18A088B87
:102A380009EA45097003022B61EEFCEFFDAA18AB09
:102A480019120E79850882850983A3A3780C121CB4
:102A5800E8908287780C121CC285188285198378C1
:102A680010121CE89082877810121CC2780C79101A
:102A7800121602501F780C7910121C9A90827F78D7
:102A88000C1216224047850C14850D15850E1685E7
:102A98000F17804590827F851014851115851216B1
:102AA8008513177814790C121C9A78141216225070
:102AB8001C751400751500751600751701781479C2
:102AC80010121C9A7814790C121C61800C75140170
:102AD80075150075160075170074097814121C42D4
:102AE8009082BF780C121CE87814790C121BBA85F6
:102AF8000882850983A3A3A3A3A3A3122B82121D73
:102B080099880C890DE4F50EF50F7814790C121CD0
:102B1800617404121E70122B82121D99E8FA8A0C35
:102B2800E4F50D7814790C12160250077814790C14
:102B3800121C9A900376E06408600AE06406600557
:102B4800E06405702090827B78141216225016904B
:102B580082777814121C74800C7514007515007532
:102B68001600751700850A82850B837814121CF7E6
:102B78007406121E3A7F10021FACE0F8A3E0F97A3F
:102B8800D07B032274F7121F00120E9190051BE0F0
:102B980064017010906245E4F0A3F053F4F343FE2F
:102BA8000C5390F3120E37E5C654B84441F5C6E508
:102BB8009E5447644170F8906185740FF090051930
:102BC800E0F47002A3E0604E90051AE0600814601B
:102BD8001B14602E8040750801750900900519E0E6
:102BE8007808121E11E508F45280802A75080175CC
:102BF8000900900519E07808121E11E508F45290B2
:102C08008014750801750900900519E07808121EEE
:102C180011E508F452A079007F02021FAC74F71284
:102C28001F00E9FEEAFF120E9174016E700C7A80A3
:102C38007B00900375E0F91213CB90300CE493F409
:102C48006008E493F9120C3F800953C6B8E59E5416
:102C58004770FA120E3D90051BE064017003120CD8
:102C680063900519E0F47002A3E0604B90051AE048
:102C7800600814601A14602C803D750801750900FD
:102C8800900519E07808121E11E508428080287521
:102C98000801750900900519E07808121E11E50869
:102CA80042908013750801750900900519E07808AD
:102CB800121E11E50842A0120DD18A088B09A80836
:102CC800A909E8496014E5E170FCE82414F582E4F8
:102CD80039F583E0F46003E0F5E174016F700A7A76
:102CE80001900375E0F912145B022C2074F1121F95
:102CF800008A088B098C0A8D0B9082877808121C31
:102D0800C2740F121E70780C121CE8908287780C1F
:102D1800121CC27808790C12160290827F50107823
:102D280008790C121C9A78081216224014800E7822
:102D38000C7908121C9A780C12162250047901801A
:102D48000279007F08021FAC74ED121F008A088BFD
:102D5800098C0A8D0B9082877808121CC274131292
:102D68001E70780C121CE8908287780C121CC278AE
:102D78000C790812160240117808790C121C9AAACC
:102D880008AB09AC0AAD0B802275100075110075EF
:102D980012007513017810790C121C9A78107908B2
:102DA800121C61AA10AB11AC12AD137F0C021FAC40
:102DB8009082877808121CE88A828B837808121C14
:102DC800D57F04021FAC74F5121F008C828D8378A6
:102DD80008121CE88A828B837808121CAE122E26F1
:102DE800C3E09CF0A3E09D122E1840229082B77891
:102DF80008121CE88A828B837808121C878A828BC7
:102E080083A3A3A3A3E02420F0A3E0344EF080A082
:102E1800F088828983C3E09420A3E0944E22EA24B8
:102E280004F8E43BF98C828D83A3A3A3A3E0FCA35D
:102E3800E0FD888289832274F5121F00E9FE900460
:102E4800D3E0FAA3E0FBEE29F8E433F9744028F55F
:102E580082748139F583E02AF508A3E03BF5097807
:102E6800081220A7908283121D061229AC74021240
:102E78001E3A8A088B098C0A8D0B74107808121C6C
:102E880029AA08AB097F04021FAC74F1121F008A3B
:102E98000C8B0D8C0E8D0F7411121E701220BE74C7
:102EA80011121E70E02401F508A3E03400F509E4CE
:102EB800F50AF50B780C7908121B3A90827378089A
:102EC800121CE8780C7908121B3AAA0CAB0DAC0E50
:102ED800AD0F1229AC7402121E3A8B09EA4509603B
:102EE800047A0180027A00EC2AFCE43DFD74131296
:102EF8001E70E0F8A3E0F9E8FEE9FFECF8EDF97AD6
:102F0800717B02121D9988088909E4F50AF50B8E70
:102F1800828F837808121CF7ECF8EDF97A717B023E
:102F2800121D998A088B0974057808121E118E8261
:102F38008F83A3A3A3A3E508F0A3E509F07F080204
:102F48001FACC082C083E9906000F0D083D0822299
:102F5800C0E074F2121FECA2AFE433FED2AFE589F1
:102F6800A2E150031212BD758900C2C5EEF8EEA2A7
:102F7800E092AF7F0102204BC0E074F2121FECA276
:102F8800AFE433FED2AFE58BA2E050031212BD7559
:102F98008B00C2E8EEF8EEA2E092AF7F0102204B70
:102FA800C0E0C0D0E8C0E0E9C0E0A2AFE433F8D2A6
:102FB800AFC2C7E8F9E8A2E092AFD0E0F9D0E0F8F4
:102FC800D0D0D0E032C0E074F2121FEC74FB65DCA4
:102FD800702674FB65DE70209062ACE064FB7018AC
:102FE8009062AEE064FB701053E4FD790112145551
:102FF8007A0879011212D5E97F0102204BC2AF028B
:03300800000022A3
:10300C00FFFFFFFFFFFFFFFFC082C083E990164C5C
:10301C00F0D083D08202013274F6121E94E9900231
:10302C00E8F0900348E0F50875090074027808127E
:10303C001E11AA08AB091214439002E91239D79059
:10304C0002E9123DC4606F900348E075F003A4FAE6
:10305C00ABF01214439003061239D7900306123DBD
:10306C00C4700B9002E9123D9512144980489003EC
:10307C0006124D297AFF7BFF1212217A0080198AE1
:10308C000875090074027808121E111247D174FFDA
:10309C001231D7E4F0A3F00A900348E0F8EAC398A1
:1030AC0040DD79051208859002E8E0F91207717A83
:1030BC000F7B09120B1302487474F4121E948A08C5
:1030CC008B09EB548060479002E8E0F91213B38A45
:1030DC000A8B0BAE0AAF0BEE4F602A8E828F83E009
:1030EC0064B0701A120897E960148E828F83A3A3C0
:1030FC00A3A3E0F9EE2405FAE43FFB120867EEFA0D
:10310C00EFFB1213A1AA08E5096480FB80047A0086
:10311C007B0002332774F2121E9474FB121E24EAF5
:10312C00FEEBFFEE4F60457403121E70EEF0A3EF42
:10313C00F0851882851983ECF0A3EDF07402121E51
:10314C0070E9F0AA18AB1912076BE9F508707574E1
:10315C0013121E70E0F50AA3E0F50BE50A450B60AF
:10316C00638E828F83123760EE4F70057508028074
:10317C00537A067B001214438A0C8B0DA80CA90DF4
:10318C00E8497005750813803B88828983E4123105
:10319C00D7EEF0A3EF1232F3E50AF0A3E50BF090B3
:1031AC0002EC1232EC9002EC6017E0FCA3E080031E
:1031BC00EAFCEBFD8C828D831232EC70F38C828DE9
:1031CC00831243ECA9087405024FA9F0A3124D0B0E
:1031DC00A32274F2121E948908890C750D007403D5
:1031EC00780C121E11850C0A850D0B9002EBF090D9
:1031FC0002E91241F71232EA602E1214497900806A
:10320C001D890C750D007402780C121E119002E9C8
:10321C001246908882F583A3A3E4F0A3F0099003EF
:10322C0048E0F8E9C39840D9900348E0FA850AF0E1
:10323C00A4CAA8F0850BF0A428FB1214438A0C8BAB
:10324C000DAE0CAF0DEE4F70030232E0900348E070
:10325C00FC850AF0A4CCA8F0850BF0A428FD79001D
:10326C0012138F7C0080318D0C750D007403780C5B
:10327C00121E118A828B831232E588828983E4F0D4
:10328C001232F2A3A3F0A3F00DEDC3950840D8EED3
:10329C00250AFEEF350BFF0C900348E0F8ECC398C1
:1032AC0050288C0C750D007402780C121E119002B3
:1032BC00E91232E5E82402500109FAE9FB8A828B13
:1032CC0083EEF0A3EFF07D0080BFE5089002EBF0F9
:1032DC00790080027913024FAC124694F922A3A311
:1032EC00123D99EA4B22A3124D0BA3A3A32274F413
:1032FC00121E947900EAA2E0501F750834750982F9
:10330C0078081220A779107C047D007A4E7B161267
:10331C00087F7402121E3AE9F980007F04021F66CE
:10332C00C082C0839002EC123DC4601C88828983E9
:10333C00A3A3E06A7003A3E06B8882898370E8A37F
:10334C00A3A3A3123D9580047A007B0002301D7468
:10335C00F2121E9474FD121E24EAFEEBFF851882F5
:10336C00851983E4F0A3F07402121E707401F0123C
:10337C003DC17014120A4D1214439002EF1239D74A
:10338C00123DC170030234ED123AD7EE2404F50A53
:10339C00E43FF50B850A82F583E024FE603C24FCB7
:1033AC00607424FE607E24FE700302343D24FE70A3
:1033BC000302344A24FE700302345724FE700302C5
:1033CC00346424FE700302347124FC7003023492C2
:1033DC0024FE70030234AA0234E6120A4D9002F164
:1033EC00EAF0A3EB1234F91204B3E960030234E6F9
:1033FC009002F11220BE8E828F83A3A3A3A3A312EB
:10340C004D29850882850983123D9512084F740257
:10341C00121E3A0234E6AC18AD19EEFAEFFB1208A4
:10342C009D0234B5AC18AD19EEFAEFFB1208A3806F
:10343C0078AC18AD19EEFAEFFB1208A9806BAC183A
:10344C00AD19EEFAEFFB1208AF805EAC18AD19EEB9
:10345C00FAEFFB1208B58051AC18AD19EEFAEFFB80
:10346C001208BB80447402121E7A880C890D780CE9
:10347C001220A77402121E8AEEFAEFFB1208C17416
:10348C0002121E3A8023AC18AD19EEFAEFFB1208AB
:10349C00C7E9F870167402121E70E4F0803CAC1888
:1034AC00AD19EEFAEFFB1208CDE9F8E8602C8E822C
:1034BC008F83A3E064146022850A82850B83E090DD
:1034CC0002F1F0851882851983123D959002F21253
:1034DC0039D7E8A31234F91204ADEEFAEFFB120857
:1034EC00257402121E70E0F97403024FA9F07CF1EE
:1034FC007D02850882850983123D992274E8121E8B
:10350C009474FA121E247404121E70ECF0A3EDF0E5
:10351C008A128B13EA2405F50EE43513F50FEA2411
:10352C0002F510E43513F511851082F583123D95E3
:10353C001205A38A0A8B0B7508007C037D007900A9
:10354C007AF17B0212138FE50E2402F516E4350F87
:10355C00F5177402121E7A880C890D780C1220A7AC
:10356C00850E82850F83A3A3A3A3E0F50C750D0034
:10357C00780C1220A7E50E2405F50CE4350FF50D9B
:10358C00780C1220A785168285178312409C12078F
:10359C00897406121E3A8A0C8B0DE50C450D7003CE
:1035AC000237298020851882851983E088828983D7
:1035BC00F00508851882851983A3E0C0E012376AEC
:1035CC00D0E0F00508E50A24FBFAE50B34FFFBC359
:1035DC00E5089AE49B40030237297E007F008512A0
:1035EC0082851383A3A3A3A3E0F50978091220AB6A
:1035FC00E4F514F51578141220A77514EE75150260
:10360C0078141220A79002EF1220BE7409121E70BB
:10361C001220BEE50A24F9F9AC0CAD0D851082859B
:10362C001183123D951208F77409121E3AE96003D2
:10363C000236CA850E82850F83A3A3A3A3A3A3A3DB
:10364C00E0F89002EEE0687075E0F5148E157814D1
:10365C001220A7124D26850E82850F83A3A3A3A348
:10366C00A3A3A3A3123D951213897402121E3AE967
:10367C00604C9002F2123DC4703BE4F514781412C5
:10368C0020A77CFF7DFF7907851082851183123D71
:10369C00951208617402121E3A123DCA7017850EFB
:1036AC0082850F83124EC37404121E70124784124B
:1036BC0040CD02375D850C82850D83123760A818CA
:1036CC00A9198814891578141220A77404121E7075
:1036DC001220BE8516828517831239CD1207957478
:1036EC0004121E3A8A0C8B0DEE4F70030235A61293
:1036FC00376AEE123775124083EF123775F8A3E074
:10370C003400F9E50C450D60030235B188828983DC
:10371C0074FFF0050812376A74FFF00508E50860BD
:10372C001A1313543F1239DD1204BFE960099002D9
:10373C00F2123D951213FB79008016850E82850FCF
:10374C0083124EC37404121E701247841243EC7918
:10375C000A024056A3A3A3A3E0FEA3E0FF22A808FD
:10376C009002F2E02812408322F00508089002F241
:10377C00E0282274E8121E9474FA121E24740212A9
:10378C001E701239D77404121E70ECF0A3EDF07495
:10379C0002121E70E0240512406CE0F50CA3E0F55B
:1037AC000D7402121E70E02402F510A3E03400F533
:1037BC0011851082F583123D951205A375080075CD
:1037CC000900EA24FCFEEB34FFFF8008050CE50C35
:1037DC007002050DA808C3EE98EF9400500302394F
:1037EC0089A818A919880E890F780E1220A785149C
:1037FC0082851583A3A3A3A3124D2D1220A7E51434
:10380C002405F50EE43515F50F780E1220A7851456
:10381C00828515831239CB1207897406121E3A8AD7
:10382C000E8B0FEA450F7003023989EA2404F51652
:10383C00E4350FF517851682F583E0F50CA3E0F55A
:10384C000D851882851983124D298A828B83A3A337
:10385C00A3E0F9851082851183123D95120777E953
:10386C00F50960030239897402121E70124093F537
:10387C000978091220ABE4F512F51378121220A77F
:10388C007512EE75130278121220A79002EF122017
:10389C00BE7407121E701220BEEEF9AC0EAD0F8571
:1038AC001082851183123D951208F77409121E3A85
:1038BC00E9F5096003023989E508703FE4F50EF576
:1038CC000F780E1220A77CFF7DFF79098510828569
:1038DC001183123D951208617402121E3A1240B9FE
:1038EC00700D7404121E701239C079110239BD901A
:1038FC0002EEE024029002F2F080149002F2E0FA60
:10390C009002EEE0790024025001096A497072A815
:10391C00089002EEE0FAE82AFAE43400FBEE9AEFA3
:10392C009B405A851682851783E0C0E09002F31203
:10393C00376FD0E0F00508851682851783A3E0C0A9
:10394C00E0089002F312376FD0E0F005089002EE19
:10395C00124D2D1220A7124D26A8081240601213EA
:10396C00777402121E3A9002EEE02508F50874FFF7
:10397C00650C700474FF650D60030237D8E50860B0
:10398C001F9002F2E0F5F0E508841239DD1204C54F
:10399C00E960099002F3123D951213FB7900801136
:1039AC00E509700375090A7404121E701239C0A956
:1039BC00090240561241FBE50CF0A3E50DF022A3E1
:1039CC00A3124FB8AA0CAB0D22A3A3EAF0A3EBF001
:1039DC00229002F1F07CF17D028510828511831218
:1039EC003D992274EC121E9474FC121E241244FC99
:1039FC007402121E8A123D8F12078F8A0C8B0DEAED
:103A0C00450D7003023AC7123AD7A818A9198810A5
:103A1C00891178101220A77CFF7DFF790B85088215
:103A2C00850983123D951208617402121E3A123BED
:103A3C00CD700C850A82850B831240CA023AD48E53
:103A4C00828F83A3A3A3A3E0F51278121220ABE418
:103A5C00F512F51378121220A77512F1751302786E
:103A6C00121220A778101220A77409121E701220AF
:103A7C00BE7409121E70E0F9AC0CAD0D8508828580
:103A8C000983123D951208F77409121E3AE9FE706B
:103A9C00157CF17D02850882850983123D951204FF
:103AAC00CBE97009802074166E70027E009002F2D1
:103ABC00123D951213FBEE7004800B7E01850A8279
:103ACC00850B831243E9EEF90243FEEE2402F5085E
:103ADC00E43FF5092274EC121E9474FC121E24EAC5
:103AEC00FEEBFF8C0E8D0FEE2405F508E43FF50977
:103AFC007402121E8A850882850983123D9512076D
:103B0C008F8A0C8B0DEA450D7003023BBDEE24022F
:103B1C00F50AE43FF50BA818A9198810891178103B
:103B2C001220A77CFF7DFF790D123D8F1208617466
:103B3C0002121E3A123BCD700B8508828509831246
:103B4C0040CA807A8E828F83A3A3A3A3E0F5127858
:103B5C00121220AB850882850983A3A31220BE759F
:103B6C0012F175130278121220A778101220A77484
:103B7C0009121E701220BE7409121E70E0F9123D5B
:103B8C008B1208F77409121E3AE9FE700F7CF17D56
:103B9C0002123D8F1204D1E97009802074166E70E8
:103BAC00027E009002F2123D951213FBEE7004801F
:103BBC000B7E018508828509831243E9EEF90243E5
:103BCC00FE123DD4F510A3E0F511EA45112274E87C
:103BDC00121E9474FE121E248A168B178C148D15CB
:103BEC00EA2405F50CE43517F50DEA2402F50EE48C
:103BFC003517F50F850E82F583123D951205A38AB4
:103C0C00088B09750B007C037D0079007AF17B022F
:103C1C0012138F750A00E50814F5100424FFF5083B
:103C2C00E50934FFF50980549002F1E0FA9002EEB8
:103C3C00E0F8EA28F8E43400F9E50898E509995029
:103C4C000D9002F1E0F8E510C3989002EEF0E0F56B
:103C5C001275130078121220A7124D269002F2E072
:103C6C002AFAA3E03400FB1213777402121E3A9066
:103C7C0002EEE0F89002F1E028F0050A850C82854E
:103C8C000D83A3A31246A04003023D709002F1E005
:103C9C00C39508E495094003023D70AE0AEE2EFE72
:103CAC00E433FF123DAFAC18AD19124D41E439FBB2
:103CBC0012078F8A128B13AC12AD13EC4D701B755F
:103CCC000B01123D9F1243ED9002F21232EC600395
:103CDC001213FBA90B7402024058851682851783B8
:103CEC00A3A3A3A3E0F50B780B1220ABE4F512F51C
:103CFC001378121220A77512EE7513027812122087
:103D0C00A79002EF1220BE7407121E701220BEA9DB
:103D1C0010850E82850F83123D951208F7740912D7
:103D2C001E3AE9F50B709B9002F2123DC46003023F
:103D3C003C34E4F512F51378121220A77CFF7DFFBA
:103D4C00790F850E82850F83123D951208617402DE
:103D5C00121E3A123DCA6003023C34123D9F1240BF
:103D6C00CE023CE17CF17D02850E82850F83123DF3
:103D7C00951204D7E96003023CD47900023CE1AC13
:103D8C000CAD0D850A82850B83123D9922E0FAA3B6
:103D9C00E0FB22123DAFE0FAA3E0F9EA851482853C
:103DAC00158322850C82850D83E02EF8A3E03FF964
:103DBC0088828983229002EF124EC7E84922123D75
:103DCC00D4F8A3E0F9E849229002F2EAF0A3EBF070
:103DDC009002F2E02274E8121E9474FA121E2474FB
:103DEC0004121E701239D78C168D177404121E70A3
:103DFC00E02405F50EA3E03400F50F7404121E70D8
:103E0C00E0240212406C123D951205A38A0A8B0B1A
:103E1C007F007E00A818A919880889097808122043
:103E2C00A7850E82850F83A3A3A3A3E0F5088E09B3
:103E3C0078081220A7E50E2405F508E4350FF509DE
:103E4C0078081220A7850E82850F83A3A312409CAD
:103E5C001207897406121E3A8A0C8B0D80291240A7
:103E6C008DF00F12408DF00F9002EE1243D81220FD
:103E7C00A7124D26EFF81240601213777402121E2F
:103E8C003A9002EEE02FFFE50C450D7003023F1C4B
:103E9C0085188285198312450EA3A3A3E0F9851416
:103EAC0082851583123D95120777E9FEE50C2404F3
:103EBC00F510E4350DF511EE70507404121E7012ED
:103ECC004093F50878081220ABE4F508F50978085A
:103EDC001220A77508EE75090278081220A7900227
:103EEC00EF1220BE7407121E701220BEE50A24FACF
:103EFC00F9AC0CAD0D851482851583123D95120815
:103F0C00F77409121E3AE9FE60391240A91243EC0B
:103F1C00EF70030240439002F2E0F5F0EF84900260
:103F2C00F1F07CF17D02851482851583123D95128A
:103F3C0004DDE960099002F3123D951213FB790040
:103F4C000240568F08EF703BE4F512F5137812120D
:103F5C0020A77CFF7DFF7911851482851583123D86
:103F6C00951208617402121E3A1240B9700912407F
:103F7C00A91240CD0240569002EEE024049002F2C9
:103F8C00F080359002EEE0F89002F2E0FAE82404BA
:103F9C00FCE43400FDEC6A4D6003023F22E50A2488
:103FAC00FAFAE50B34FFFBE50828F8E43400F9EAEB
:103FBC0098EB995003023F22851082851183E0C053
:103FCC00E09002F3E02FF8A3E034008882F583D070
:103FDC00E0F00F851082851183A3E0C0E012407AD7
:103FEC00D0E0F00F7402121E7A8808890978081242
:103FFC0020A77402121E701220BE850E82850F83BC
:10400C001239CB1207957404121E3A8A0C8B0DEAE6
:10401C00450D7003023E6A7402121E70E0C0E0127D
:10402C00407AD0E0F00F7402121E70A3E0C0E012D0
:10403C00407AD0E0023E72EE70027E0A850E8285D6
:10404C000F831240AF1243ECEEF97406121E3A7F46
:10405C0010021F669002F3E028FAA3E03400FB2262
:10406C00F514A3E03400F515851482F58322124073
:10407C007E229002F3E02FFAA3E034008A82F583CB
:10408C002212407E74FF221241FBA3A3A3A3E022C1
:10409C00124FB8850E82850F83123D9922851082AE
:1040AC00851183124EC7851682851783229002F3E1
:1040BC00EAF0A3EBF09002F3124EC7E84922124348
:1040CC00F2E8F0A3E9F079112274EA121E9474FE5E
:1040DC00121E248A088B098C128D13EA2405FEE427
:1040EC003509FFAC18AD198E828F83123D951207DE
:1040FC008F8A0C8B0DEE2406F50EE43FF50FEA4586
:10410C000D70030241CDE5082402F50AE43509F5EA
:10411C000B8A828B83A3A3A3E0A2E5502885188287
:10412C00851983123D951208EB8A108B11EA451103
:10413C0060207912123D8B851082851183121E929C
:10414C00E9F50C707F850E82850F83E0600979524A
:10415C008011750C0E806D850882850983A3A3A33D
:10416C00A3E0F9E4F508F50978081220A78E828FF0
:10417C0083A3A3E0F50878081220A78E828F83A36F
:10418C00A3A31220BE8E828F83124D29123D8F1253
:10419C0008FD7406121E3AE9F50C7011850E828525
:1041AC000F83E0702D123D8F1204E3802574166589
:1041BC000C7011750C007418121E701241F7E4800B
:1041CC0010750C01124EBF851282851383E8F0A383
:1041DC00E9F0850E82850F83E0600479008002A9E6
:1041EC000C7402121E3A7F0E021F661241FB22E073
:1041FC00F8A3E0F58388822274EC121E9474F712F3
:10420C001E248A0A8B0B8C108D11EA2405FEE435D2
:10421C000BFF750C00AC18AD198E828F83123D9577
:10422C0012078F8A088B09EA450970030243C3E51C
:10423C000A2402F50A5002050B8A828B83A3A3A3DE
:10424C00E0A2E5502F851882851983123D9512083E
:10425C00EB8A0C8B0DEA450D604F7912AC08AD0959
:10426C00123D8F850C82850D83121E92E9F50C6030
:10427C00030243C6850A82850B83E0F508A3E0F5AB
:10428C0009AA08FB1208DFEA4B70197AFF7BFF12B0
:10429C0008DFEA4B70030243B98A828B83E508F08E
:1042AC00A3E509F07508008008750C0E0243C605DD
:1042BC00089002EBE0F8E508C39840030243B98587
:1042CC00080E750F007403780E121E118A828B83F0
:1042DC00A3A3E0250EF8A3E0350F12478D70D08E06
:1042EC00828F831243E11239D78E828F83A3A3125C
:1042FC0043E11239D5EE2404F508E43FF5098508AD
:10430C0082F583E088828983A3A3A3A3F0A3E4F0BE
:10431C00EE2405F50EE43FF50F850E82F58312436E
:10432C00E1A3A3A3A31239D5751207751300781254
:10433C001220A7EEFCEFFD7404121E821213777488
:10434C0002121E3AE4F51278121220A78508828513
:10435C000983E0FC7D007917123D8F12086174020D
:10436C00121E3A7407121E701239D77407121E707F
:10437C00E0FA4B603D8508828509831243D81220F0
:10438C00A7850E82850F83124D29121377740212A2
:10439C001E3A7402121E8A123D8F1204E9E960263D
:1043AC007407121E70123D951213FB8019750C09BF
:1043BC008008750C118003750C01124EBF8510829C
:1043CC008511831243ECA90C74098028E0F508755B
:1043DC000900780822123D9988828983221243F2BF
:1043EC00E8F0A3E9F022E0F8A3E0F9850E82850F4E
:1043FC0083227404121E3A7F0C021F6674EC121E88
:10440C00941244FC751000EE2402F50CE43FF50DFB
:10441C00850C82F583123D951208DF8A088B09EA18
:10442C00450970030244E0850A82850B83E0640130
:10443C0060030244D5AC08AD09AA0AAB0B1208D331
:10444C00E9606E850882850983123762EE2406F5D1
:10445C000AE43FF50B8E828F83A3A31220BE8E82BB
:10446C008F83A3A3A3A31220BE850A82850B83127C
:10447C0020BE79188E828F8312450E123D9512083C
:10448C00FD7406121E3AE9F8741668700B850A82E0
:10449C00850B83E4F0A38014E860128E828F831264
:1044AC003D95850E82850F83EAF0A3EBF088108092
:1044BC0018780E1220A7AC08AD09EEFAEFFB120823
:1044CC00D97402121E3AE9F510AA08AB091208E5D4
:1044DC00E510700E850C82850D83123D951204EF4C
:1044EC008009741665107003751000A9100244033E
:1044FC00EAFEEBFF8C0E8D0FEE2405F50AE43FF57A
:10450C000B22124FB8850C82850D832274EA121E81
:10451C00947508007509007E007F00750A00EC2474
:10452C0002F510E43DF5118035EC65087003ED657E
:10453C000960030245CD88828983A3A3E06A7003D6
:10454C00A3E06B707C88828983A3A3A3A3124EC3C0
:10455C00EE28FEEF39FFEA28FAEB39FB050A124682
:10456C009D503A850A0C750D007403780C121E11BF
:10457C0085108285118312469012478D601FE508C5
:10458C00450970A58C088D0988828983123760884B
:10459C00828983A3A3E02EFAA3E03F80BEE50AC381
:1045AC009402500302468B750800750900EE4F60AB
:1045BC0010EEFAEFFB1213F58A0E8B0FEA450F7013
:1045CC0005790002468D750B00024660850B0C7553
:1045DC000D007403780C121E11851082851183E076
:1045EC00250CF50CA3E0350DF50DE50C2406F514A2
:1045FC00E4350DF515851482F5831247926042E57A
:10460C000C2404F512E4350DF513851282F5831292
:10461C0020BEE50E2508FAE50F3509FB1213777459
:10462C0002121E3A851282851383E02508F508A331
:10463C00E03509F509851482851583123D95121311
:10464C00FBE50B600D7C087D007900AA0CAB0D120C
:10465C00138F050BE50BC3950A50030245D8851043
:10466C0082851183124EC388828983A3A3A3A3A33B
:10467C00A3E50EF0A3E50F1232F3EEF0A3EFF07901
:10468C00010241F212469422E0250CF8A3E0350D0C
:10469C00229002EBE0F8E50AC3982274F0121E9403
:1046AC008A0E8B0F8C0A8D0B750D00750C008050CB
:1046BC007916EE2406F508E43FF5098E828F83A364
:1046CC00A31220BE8E828F83A3A3A3A31220BE8528
:1046DC0008828509831220BE850E82850F83A3A3D1
:1046EC00123D951208FD7406121E3AE9F50D74166A
:1046FC00650D706C850882850983E4F0A3F0050CC8
:10470C009002EBE0F8E50CC3985066AA0C8A087589
:10471C00090074037808121E11850A82850B83A385
:10472C00A31247DCE8FEE9FF8E828F83124792606A
:10473C0040EA2401F508E43400F5099002EBE06549
:10474C00087002E509601488828983A3A3A3A3A33C
:10475C00A3A3A3123DC460030246BC79180246BE53
:10476C00E9609B124EBF7410121E701247841243E4
:10477C00ECA90D7F08021F66E0FAA3E0F5838A829C
:10478C0022F988828983124FB8EC4D2274F6121EDE
:10479C00947C0080010C900348E0F8ECC398501E08
:1047AC008C0875090074027808121E111247D1E0AA
:1047BC006A7003A3E06B70DDE8FAE9FB80047A0011
:1047CC007B000248749002E91247DC8882898322BC
:1047DC00E02508F8A3E03509F92274F2121E948A38
:1047EC00088B09750A0080278E828F83A3A3A3A34D
:1047FC001232EA60031213FB7C087D007900EEFA9A
:10480C00EFFB12138F8E828F83E4F0A3F0050A1254
:10481C00469D5027850A0C750D007403780C121EEA
:10482C0011850882850983A3A3E0250CFEA3E0353E
:10483C000DFF8E828F83123DC470AD850882850971
:10484C008374FFF0A3F0024FAC74F6121E9412089E
:10485C00918A828B83E582458370067A007B008087
:10486C0007A3A3A3A3123D957F02021F6674F41243
:10487C001E9489088C828D83E06402703C124E6217
:10488C00FEA3E0F9EEF874026870037429697029CC
:10489C00750A02750B00780A1220A77410121E708C
:1048AC001220BE7410121E701220BEA908121233F0
:1048BC007406121E3AE9F98002790102332774E872
:1048CC00121E9474FB121E24E9851882851983F03C
:1048DC008A168B17ECFEEDFF7510008E828F83A36A
:1048EC00A3A3E0A2E4502D741D121E70123D95126C
:1048FC0008EB8A828B83E58245837003024D017934
:10490C000AEEFCEFFDAA16AB17121E92E9F5106029
:10491C0003024D04741F121E70E0F508A3E0F509A4
:10492C007421121E70E0F50AA3E0F50B7423121E1D
:10493C0070E0F50EA3E0F50F8E828F83E0640260C9
:10494C0003024CA2A3124EC3850882850983A3855A
:10495C008212858313EE2406F50CE43FF50D888254
:10496C008983124D41F514E439F51578141221316F
:10497C00010000280128A44907000228694A0328DD
:10498C00D7490029984B0129C34B0229644B0329B1
:10499C00984B04293C4CA24CE50E450F6003024C8D
:1049AC009D850C82850D83124EC3E8FAE9FB8A8241
:1049BC008B83E0850A82850B83124D4C1220A78ACB
:1049CC00828B83A3E0FCA3E0024C26E50E450F602E
:1049DC0003024C9D850A82850B837401F0124D36BF
:1049EC00850882850983F07C007D008E828F83A3ED
:1049FC00A3A3A3E02401FAA3E03400FB12078FEA7F
:104A0C004B60408A828B83E02402F8850A82850BF6
:104A1C0083E028F0EA2404F8E43BF988828983E0F7
:104A2C00851282851383124D5A124D4C1220A78A7F
:104A3C00828B83A3124D29E5082403FAE43509FB84
:104A4C00024C2B850A82850B83E02404F07C047DC8
:104A5C00007900AA12AB1312138F024D04E50E4518
:104A6C000F6003024C9D124D36FEA3E0FF850A82B7
:104A7C00850B837404F0EE850882850983F0EF853D
:104A8C001282851383F07403121E8AEEFAEFFB1266
:104A9C00078F8A0C8B0DEA450D7003024B478A82F7
:104AAC008B83A3A31237607401121E7A880E890FB0
:104ABC00780E1220A77405121E701220BE7CFF7D8A
:104ACC00FF1207957404121E3A8B0FEA450F7033D0
:104ADC00850C82850D83124D2D1220A7850C8285A5
:104AEC000D83A31220BE7C027D007A097B83120504
:104AFC00917404121E3AE9700A7401121E7074FF4C
:104B0C00F0A3F08E828F83E064027039750C02750D
:104B1C000D00780C1220A78E828F83A3124D29E5ED
:104B2C00082404FAE43509FB1213777402121E3AB6
:104B3C00850A82850B83E0240280097401121E70A1
:104B4C00EEF0A3EFF07401121E70124D1B740112E3
:104B5C001E70124D12024C97E50E450F6003024C6D
:104B6C009D850C82850D83124FB1AA16AB171212BC
:104B7C0039850A82850B837402F085088285098346
:104B8C00EAF0851282851383EB024C9AE50E450FF1
:104B9C006003024C9D124D36F8A3E0F9850A82851C
:104BAC000B837402F0E8850882850983F0E985128D
:104BBC0082851383024C9A850C82850D83123D9558
:104BCC00121371EAFAF8C3950EE4950F405CE86590
:104BDC000E450F70047A008021851882851983E0B8
:104BEC00FCE50E2CFCE4350FFDC3EC98ED94005065
:104BFC0003E08005E50ECAC39AFAEA850A82850BA2
:104C0C0083F08A0A750B00780A1220A7850C82851E
:104C1C000D83E0250EFCA3E0350FFDAA08AB0912AD
:104C2C0013777402121E3A024D04751007024D04DC
:104C3C00E50E450F705B850C82850D83124EC38586
:104C4C000A82850B837407F088828983124D1312B4
:104C5C004D0BE0851282851383F0E82402FAE439C7
:104C6C00FB8A828B83124D1B8A828B83124D12A37B
:104C7C00A31232F2124D20F0E82405F850010988F5
:104C8C00828983124D20A3124D5AA3A3A3A3F080B3
:104C9C006775100B8062741D121E70123D95120800
:104CAC00918A828B83E5824583604A124EC3880CBD
:104CBC00890DE8450D603E7425121E70E0F51078E4
:104CCC00101220AB780E1220A7780A1220A77808B1
:104CDC001220A77407121E70E0F9EEFCEFFDAA1665
:104CEC00AB17850C82850D83121E927407121E3A27
:104CFC00E9F510800375100EA9107405024058F0E8
:104D0C0088828983A322A3E08508828509832212E5
:104D1C004D61F022124D61A3A3229002EF124FB805
:104D2C0022E0F50E750F00780E22850C82850D831E
:104D3C001241FBE022E0FAA3E0F8E4C8F9EA2822E9
:104D4C00F08A828B83E0F50A750B00780A22124DEB
:104D5C000B124D6122E0850882850983A3A322747E
:104D6C00EE121E9474FE121E248A088B09ECFEEDC2
:104D7C00FF890AAC18AD19EEFAEFFB12078F8A0CFB
:104D8C008B0DEA450D7003024E53851882851983ED
:104D9C00123D951208918A828B83E58245837003BC
:104DAC00024E4EA3A3124EC3880E890FE8450F7016
:104DBC0003024E4E7414121E70E0F510A3E0F511B0
:104DCC00E50AF50B780B1220AB7419121E70122029
:104DDC00BE78101220A7741B121E70E0F9AC0CAD3B
:104DEC000DAA08AB09850E82850F83121E927405DD
:104DFC00121E3AE9F50B705274FE650A604C850C74
:104E0C0082850D83E064027041124E62FAA3E0F9D0
:104E1C00EAF87402687003742969702E8510828513
:104E2C001183124D41F50CE439F50D780C1220A7C5
:104E3C00EEFCEFFDAA08AB091209157402121E3A1A
:104E4C008008750B0E8003750B01A90B7402121EE2
:104E5C003A7F0A021F66A3124EC788828983E0221A
:104E6C0074F6121E9474FE121E24740C121E701210
:104E7C004EC3E8851882851983F07401121E70E9FF
:104E8C00F0E4F508F50978081220A77508027808EF
:104E9C001220A77404121E7A880889097808122037
:104EAC00A779FE1208FD7406121E3A7402121E3AFD
:104EBC000248748E828F83124EC722E0F8A3E0F969
:104ECC002274F7121E94EAFEEBFF89089003061277
:104EDC004D29121239EA5402600BA908EEFAEFFBC5
:104EEC00120783800279017F01021F6674F2121E81
:104EFC009474FE121E24EAFEEBFF890A7401650A03
:104F0C0060147402650A6003024FA77901120B3119
:104F1C00E96003024FA7EEFAEFFB1208DFEA4B60E1
:104F2C00031208E5A818A91988088909780812201D
:104F3C00A775080275090078081220A77508057571
:104F4C00098378081220A77CFF7DFF7A017B001271
:104F5C0007897406121E3A8038850882850983A356
:104F6C00A3A3A3A3A3124FB1EEFAEFFB121221E4F9
:104F7C00F50CF50D780C1220A77402121E7012207D
:104F8C00BE7CFF7DFFAA08AB091207957404121EA4
:104F9C003A8A088B09E508450970BE7402121E3A5C
:104FAC007F06021F661241FB124FB822E0FCA3E001
:104FBC00FD2274F4121E948A088B09ECFEEDFF900E
:104FCC00164CE0F4604B7A097B0012139BEA4B60A1
:104FDC00408A828B8374B1F0A3E4125020F08A8251
:104FEC008B83A3A3E508F0A3E509125020A3EEF0F0
:104FFC00A3EFF0740C121E70124EC38A828B83A323
:10500C00A3A3A3A3A3A31243EC90164CE0F9121391
:10501C00A7023327F08A828B83A3A3A3A32274EE67
:10502C00121E9474FA121E248A0A8B0BE9FF8C0848
:10503C008D097E00850A0C850B0D780C1220EB0077
:10504C000410065372509550B450D750FA501D515D
:10505C004E5171518851B85167528A52AD52DB5240
:10506C0006530653E15174016F7019850882850946
:10507C0083E0C39403500D850882850983E0901763
:10508C0038F080027E1802532E74026F701585085A
:10509C0082850983E0F8A3E0F9901739E8F0A3E9D9
:1050AC00F080027E1802532E74016F7019850882ED
:1050BC00850983E0C39402500D850882850983E03D
:1050CC00900749F080027E1802532E74016F7019FC
:1050DC00850882850983E0C39405500D8508828577
:1050EC000983E090074AF080027E1802532E740167
:1050FC006F7019850882850983E0C39402500D8571
:10510C000882850983E090074BF080027E180253D9
:10511C002E74106F7027750C10750D00780C122002
:10512C00A7AC08AD097A4C7B071213777402121ED8
:10513C003A8A0C8B0D850C82850D8380027E1802B9
:10514C00532E74016F7019850882850983E0C3940E
:10515C0002500D850882850983E090075CF080027F
:10516C007E1802532E74016F700D85088285098399
:10517C00E090173CF080027E1802532E74046F707E
:10518C0026908283780C121CE88508828509837826
:10519C000C1216125011850882850983121D12906B
:1051AC00075E121D1E80027E1802532EEF70211214
:1051BC000729E970131211C7E9F50D79501214CDB6
:1051CC00E9F50C1211B5800A9007F17401F0800218
:1051DC007E1802532E74076F707C750E06750F00C7
:1051EC00780E1220A7850882850983A3AC82AD8333
:1051FC007402121E8212137D7402121E3A8A108BD4
:10520C001185100E85110F7C007D00AA18AB198535
:10521C000882850983E0F912115BE9F50CE50CC3F2
:10522C00940A502E120729E97015A90C1211CDE918
:10523C00F50E79501214CDE9F50D1211B58019A89F
:10524C000C790074F228F582740739F5837401F037
:10525C0080067E0280027E1802532E74016F701934
:10526C00850882850983E0C39402500D85088285E8
:10527C000983E090075DF080027E1802532E7401C2
:10528C006F7019850882850983E0C3940A500D85D7
:10529C000882850983E090173BF080027E18025348
:1052AC002E74016F7025850882850983E0C39407ED
:1052BC004019850882850983E0C39411500D850837
:1052CC0082850983E090173DF080577E18805374D7
:1052DC00016F70229007F0E0F50C85088285098338
:1052EC00E09007F0F0E50C70399007F0E064017085
:1052FC00311211B5802C7E188028C3E50A9427E55D
:10530C000B9400501B74026F7016850882850983FC
:10531C00E0FCA3E0FDAA0AAB0B1205A9E9FE800292
:10532C007E02EEF97406121E3A7F0A021F6674ECB6
:10533C00121E9474DA121E24890D8A128B138C0A95
:10534C008D0B743A121E70E0F50C908240AC18ADC7
:10535C00197406121D37AC18AD19AA12AB13A90D8E
:10536C0012115BE9FEEEC3940A40030254AEEEF94F
:10537C00121197E9FF901738E064027004740180F1
:10538C00027400F50878081220ABAD0CEFFCEEF9B6
:10539C00AA0AAB0B1212097401121E3A7C147D007E
:1053AC0079007412121E8212138F8A0E8B0F850EC7
:1053BC0008850F097412121E8A7A1075F006EEA475
:1053CC002424F91214C7E9703C7C1079FF74121272
:1053DC001E821213EFE9702D7422121E70AC82AD76
:1053EC00837A0475F006EEA42425F91214C7E9F5A6
:1053FC00087412121E8AEFA2E0E433F9AA0AAB0B6E
:10540C00120633E9F87406121E8A7A0C74702EF99F
:10541C001214C7E970797406121E8212118B750E64
:10542C0000E50EC394045067A80E7900E875F003EC
:10543C00A4C8AAF075F000A42AFA75F003E9A42A0E
:10544C00F97406121E70E58228F508E58339F50912
:10545C00850882850983E0F8A3E0F9E849602C858A
:10546C000882850983A3A3E0F5107511007810124A
:10547C0020A7850882850983E0FCA3E0FDAA0AAB7E
:10548C000B1209037402121E3AE9F8050E8092EF12
:10549C00A2E1500E900748E0F9AA0AAB0B120909D9
:1054AC00E9F87404650C700F901738E0640270070B
:1054BC00AA0AAB0B12120379007426121E3A7F0C47
:1054CC00021F6674F7121E94EAFEEBFF120729E91D
:1054DC0070679007F1E06401701B1211C7E9F508C1
:1054EC009007F17400F07C0A7D0079007AF27B075A
:1054FC0012138F8039750800E508C3940A502FA841
:10550C0008790074F228F582740739F583E0640198
:10551C007018A9081211CDE9FAA808790074F228BC
:10552C00F582740739F5837400F0050880CA795048
:10553C001214CDE9F5081211B57F01021F6674F241
:10554C00121E94890BEAFEEBFF8C088D09750A0A72
:10555C00E50B600C1460091460441460640255EF90
:10556C00EEFAEFFB1211A9E9F50AE50AC3940A5009
:10557C0072E5084509606C750C06750D00780C1207
:10558C0020A7EEFCEFFDAA08AB09121377740212E8
:10559C001E3A8A0C8B0D850C82850D838045EEFAA4
:1055AC00EFFB1211A3E9F50AE50AC3940A5034E59E
:1055BC00084509602EAA08AB09A90A12119DE980B9
:1055CC0022EEFAEFFB1211AFE9F50AE50AC3940AD1
:1055DC005011E5084509600BAA08AB09A90A12117C
:1055EC009DE9F8A90A7F06021F6674F2121E948ABE
:1055FC000C8B0DE9FF7E1574FF650C700474FF6550
:10560C000D702A750800E508C3940A5014EFFC7A53
:10561C00027B00A908121179E960027E000508805E
:10562C00E5EF60627AF17B11120B558059AA0CAB35
:10563C000D120B258A0A8B0B850A08850B09E508C8
:10564C00450960407C007D00E5082405FAE4350935
:10565C00FB850882850983A3A3A3A3E0F912115B40
:10566C00E9F50AE50AC3940A500EEFFC7A027B00B6
:10567C00A90A121179E97E00EF600BAA08AB091296
:10568C0011F180027E14EEF97F06021F6674EE1291
:10569C001E948A0E8B0F8C0A8D0B7412121E70E0E6
:1056AC00F50CA3E0F50D75081574FF650E70047408
:1056BC00FF650F701E7E00EEC3940A5061AC0CADFA
:1056CC000DAA0AAB0BEEF912117FE9600375080005
:1056DC000E80E4AA0EAB0F120B258A108B11AE10A4
:1056EC00AF11EE4F60357C007D00EE2405FAE43FEF
:1056FC00FB8E828F83A3A3A3A3E0F912115BE9F5C0
:10570C0009E509C3940A5016AC0CAD0DAA0AAB0BF3
:10571C00A90912117FE97508008003750814A908FE
:10572C007F0A021F6674F7121E94EAFEEBFF9007C5
:10573C0062EEF0A3EFF0900748E0FC7D007A267B48
:10574C00001205A9E9F508900748E0F912086D7FE9
:10575C0001021F6674F0121E9474EC121E248A0C43
:10576C008B0D850C82850D83A3A3E024FA700302B4
:10577C005BD924FD7003025A4E1470030258501466
:10578C00601024FD70030259F6147003025A8D0246
:10579C005BECAE0CAF0D900762E0F8A3E0F9E849C2
:1057AC006066900762E0F8A3E0F5838882E0F8A3D6
:1057BC00E0F9E8496052EE240CF582E43FF583E011
:1057CC00F50878081220ABEE240BF582E43FF58344
:1057DC00E0F98E828F83A3A3A3A3A3A3A3A3A3E027
:1057EC00FCA3E0FDEE2403FAE43FFB900762E0F833
:1057FC00A3E0F5838882E0F8A3E0F5838882121E8B
:10580C00927401121E3A80398E828F83A3A3A3A3B4
:10581C00A3A3A3A3A31220BE90075E121D0612061B
:10582C00457402121E3AE9601879018E828F83A3A7
:10583C00A3A3A3A3A3A3A3A3E0FAA3E0FB12063F95
:10584C00E9025BECAE0CAF0D7508008E828F83A362
:10585C00E060030259788E828F83A3A3A3A3A3E0F5
:10586C00A2E040030259789007FCE0F8A3E0F9E8C5
:10587C004960030259787C0E7D007900AA18AB1997
:10588C0012138F8A0A8B0BAA0AAB0BEE240CF5822F
:10589C00E43FF583E0F8A3E0F9E8496036750A06C1
:1058AC00750B00780A1220A7EE240CF582E43FF564
:1058BC0083E02410FCA3E03400FD7402121E82125B
:1058CC0013777402121E3A8A0A8B0B850A82850B97
:1058DC0083804F8E828F83A3A3A3E0FAA3E0FB12F5
:1058EC000B258A0E8B0F850E0A850F0BE50A450BCF
:1058FC00602D750E06750F00780E1220A7E50A2490
:10590C0005FCE4350BFD7402121E8212137774022F
:10591C00121E3A8A0E8B0F850E82850F838003022E
:10592C005BEC8E828F83A3A3A3A3A3E0A2E250041B
:10593C00D2F08002C2F0A2F0E433F87900740C12B9
:10594C001E70E048F0A3E049F0EEFCEFFDAA18ABA6
:10595C0019121191E970127A027B00900748E0F954
:10596C001213CBE97900025BEE750815900762E023
:10597C00F8A3E0F9E849606F900762E0F8A3E0F55E
:10598C00838882A3A3E0F8A3E0F9E84960598E82EA
:10599C008F83A3E0FC79018E828F83A3A3A3E0FA0B
:1059AC00A3E0FB900762E0F8A3E0F5838882A3A351
:1059BC00E0F8A3E0F5838882121E92E5086028AC1B
:1059CC000879038E828F83A3A3A3E0FAA3E0FB9054
:1059DC000762E0F8A3E0F5838882A3A3E0F8A3E0D4
:1059EC00F5838882121E92025BECAE0CAF0D900711
:1059FC0062E0F8A3E0F9E8496045900762E0F8A39B
:105A0C00E0F5838882A3A3E0F8A3E0F9E849602FCE
:105A1C00850C82850D83A3E0FC79028E828F83A393
:105A2C00A3A3E0FAA3E0FB900762E0F8A3E0F58300
:105A3C008882A3A3E0F8A3E0F5838882121E920269
:105A4C005BECAE0CAF0D7C007D00EE2404FAE43F61
:105A5C00FB8E828F83A3A3A3E0F912115BE9F508F7
:105A6C00E508C3940A5017EE240AFCE43FFD7A04BF
:105A7C0075F006E508A42425F91214C1E9F8025BB7
:105A8C00ECAE0CAF0D90075DE0601990173BE0F9A0
:105A9C008E828F83A3A3A3E0FAA3E0FB12063FE957
:105AAC00F8025BEC901738E0701679058E828F83C4
:105ABC00A3A3A3E0FAA3E0FB12063FE9F8025BEC18
:105ACC008E828F83A3A3A3E0FAA3E0FB120B258A9B
:105ADC000A8B0B850A08850B09E50845097003023A
:105AEC005BEC8E828F83A3A3A3A3A3A3A3E0A2E06A
:105AFC00506D850882850983A3A3A3A3E060608E03
:105B0C00828F83A3A3A3A3A3A3A3A3A3E0F50AA3B8
:105B1C00E0F50B7409780A121E02E50A5401F8E547
