:020000040000FA
:0600000002011A0227F9BB
:03002B00022F267B
:03004B00022F4F32
:0300530002286F11
:03006B00022EF46E
:1000830002264FE5C754F84401F5C7790122000061
:100093000080FB120086B90003020104E479217891
:1000A30008B800028004F709D8FCE479297802B87B
:1000B30000028004F709D8FCE4900281780C7914DB
:1000C3008002F0A3D8FCD9FA781A90014A7A01BACF
:1000D30000028007E493A3F608DAF97A8C7B159083
:1000E300014B789679048015E493A3AD82AE838A9D
:1000F300828B83F0A3AA82AB838D828E83D8E9D9C6
:10010300E775829A7583C7740312012C7582917502
:100113008300740012012C75D00075813F7518811E
:10012300751902759F00020096C09FF59FE473D076
:100133009F22D083D082C09FE493C0E0740193C018
:10014300E0740293F59F2201FF0000B40000280031
:100153002800283075A000A000A000A0000008001F
:1001630008E001F000100010001000100010001053
:100173000050005000500010001000D00700000095
:100183000000000F0001000500307507001000019A
:100193000081FF00000000FFFFFF020720070807A0
:1001A3004407FF02020208025000A0000000E80317
:1001B3000224830100002182021083010000E7155D
:1001C300021C83010000BF02021083010000E81536
:1001D300021A83010000D502021083010000E91511
:1001E300021883010000D702021083010000EA1500
:1001F300021683080000D802021083010000EB15E9
:10020300021483010000EC15FF0100FF2002248388
:100213000100000A830210830100005016021283BA
:100223000000000000021E8303000006031700DA2B
:100233000DDA0DDA0DDA0DDA0DDA0DDA0DDA0DDA83
:100243000DDA0DDA0DDA0DDA0D9810AA10921002FC
:100253000202020202020202010D0000001001026A
:10026300248301000001830210830100009316021E
:100273002C83010000400702108301000094160242
:100283003083010000A8810210830100009516024B
:1002930032830100007E8102108301000096160262
:1002A30034830100002E810210830100009716029F
:1002B30052830100001C8102108301000098160282
:1002C3004C830100000A8102108301000099160289
:1002D3004A83010000E6800210830100009A16029F
:1002E30038830100009A810210830100009B1602EB
:1002F30036830100009C1601E8030577100AFFFF0F
:10030300FF00013075030201060000000000000039
:1003130000000000000000000000000000000000DA
:100323000000000000FFFF0600800CE80302010547
:100333000302F0FF4B30310000000000000000001A
:100343005A1560156C15721566150A43686172615A
:100353006374657269737469632031000243686171
:100363007261637465726973746963203200084350
:1003730068617261637465726973746963203300C1
:100383001043686172616374657269737469632091
:1003930034001443686172616374657269737469CC
:1003A300632035000A43686172616374657269731F
:1003B3007469632036001201000000000000000091
:1003C300000000000000000000000043686172614B
:1003D300637465726973746963203700022483014F
:1003E300000007830210830100008E17023C830381
:1003F300000057150220830100008F1702108301AC
:100403000000A017023E830100005815022083015B
:100413000000A117021083010000B21702408302FB
:1004230000005915022083010000B3170210830155
:100433000000C4170242830000005A15021E830302
:1004430000005B15022083010000C5170210830121
:100453000000D6170244830200005D15021E8303C9
:1004630000007115022083010000D71702108301D9
:100473000000E8170246830300007315022083017E
:100483000000E917021083010000FA1702488301F4
:100493000000FB17021E830300008715022083015F
:1004A30000000F18104B6579205072657373205349
:1004B30074617465000224830100000D83021083BC
:1004C300010000E8180250830000008915021E8312
:1004D3000300008A15022083010000E91812013588
:1004E3004FA10312013562A10312013593A1031237
:1004F3000135CDA10312013526A2031201356DA2E8
:1005030003120135B5A203120135E4A2031201352A
:1005130013A3031201354AA30312013591A3031256
:100523000135AAA303120135FFA30312013518A451
:100533000312013566A403120135A0A40312013589
:1005430069CB021201356CCC02120135A5CC021223
:100553000135C8CC02120135DACC0212013518CDAF
:100563000212013594CD021201355CCE021201351F
:100573007ECE0212013515CF0212013567CF02126A
:10058300013598CF02120135A5CF021201350FD0E4
:100593000212013566D00212013569D0021201350B
:1005A300A2D002120135A5D002120135AFD002123A
:1005B300013503D10212013544D10212013577D13D
:1005C30002120135B4D102120135B6D2021201353D
:1005D3005AD302120135C3D30212013501D40212D8
:1005E3000135AA9103120135D29103120135FF910E
:1005F3000312013537920312013595920312013527
:10060300E1920312013548930312013588930312D3
:100613000135C59303120135F393031201359D94FC
:1006230003120135A79403120135B4940312013563
:10063300E79403120135F394031201350B9503126A
:100643000135159503120135F6C40312013504C5AE
:10065300031201351CC50312013533C503120135DD
:1006630099BA0112013543BB0112013556BC01127F
:100673000135D2BC01120135F0BD011201352CBE8A
:1006830001120135C7BE01120135ABBF011201359D
:1006930077C00112013505C20112013576C201127C
:1006A300013530C30112013522C40112013562C480
:1006B3000112013516C50112013548C50112013574
:1006C3003EC70112013580C7011201359EC70112D1
:1006D300013504C801120135D3C80112013597C988
:1006E30001120135B6CB01120135AB780012013589
:1006F300957900120135407A00120135917A001282
:100703000135417B00120135B27B00120135977C24
:1007130000120135CB7C00120135C47D0012013576
:10072300017E00120135DD7E001201351C7F0012AF
:100733000135387F00120135BDB20312013541B3D3
:10074300031201356CB30312013586B4031201356C
:10075300989903120135AE9903120135CC9903120E
:100763000135DD9A03120135E79A03120135129C14
:1007730003120135099D03120135769D03120135DC
:100783000DDC0212013543DD021201357ADD02125E
:100793000135D1DD02120135E6DF02120135558341
:1007A30001120135E183011201354585011201353D
:1007B3005185011201358C8501120135FB8501122A
:1007C30001350487011201350D8801120135D488E2
:1007D30001120135318A011201354F8A01120135A7
:1007E3006C8A01120135198B01120135968B0112A6
:1007F3000135BE8B01120135888E011201358D8EB4
:1008030001120135A69001120135F4900112013550
:10081300649101120135A291011201357E920112F8
:1008230001353E93011201358A93011201358D93EF
:1008330001120135D19301120135199401120135C9
:100843005894011201357A9401120135AE940112C4
:10085300013511950112013532EC0212013540ECDC
:100863000212013593EC02120135B2EC021201358A
:10087300F7EC021201353BEE02120135D6EE0212FD
:1008830001351AEF0212013544EF02120135B3EFBD
:1008930002120135F9EF0212013570F0021201352F
:1008A30021F102120135942F00120135A42F0012F9
:1008B3000135453000120135A130001201355E319A
:1008C300001201357A3200120135AC3200120135C3
:1008D300DB3200120135883400120135FF36001275
:1008E30001356F3900120135613A001201355A3B67
:1008F30000120135613D00120135554000120135EA
:1009030084410012013588430012013598440012D6
:100913000135274600120135184700120135664795
:1009230000120135D54700120135F9470012013590
:100933004A4800120135EB4C00120135EC4D001210
:1009430001354D4E00120135784E001201353E4FF0
:100953000012013520E7021201352AE702120135A0
:100963006FE70212013583E70212013513E8021221
:1009730001354CE80212013587E802120135B0E86F
:100983000212013504E90212013519E90212013597
:100993003BE90212013550E90212013564E9021202
:1009A300013579E902120135B3E902120135DFE9B4
:1009B300021201350DEA0212013558EA021201351D
:1009C300BAEA021201352CEB0212013572EB021264
:1009D3000135B5EB02120135DFEB021201350AECEA
:1009E300021201350AC0031201351CA4021201359B
:1009F300FFA4021201357AA502120135B5A5021230
:100A0300013506A70212013594A70212013526AA61
:100A130002120135D8AA02120135E4AB02120135E4
:100A230057AD02120135B0AD021201351889031218
:100A330001355B8903120135DF8903120135B68C59
:100A43000312013549AE03120135FBAE0312013522
:100A5300F7AF0312013536B00312013590B003121C
:100A630001358FB603120135F2B6031201358FB784
:100A730003120135C4B703120135F4B7031201356C
:100A83002FB8031201354FB803120135F4F50212E2
:100A9300013580F6021201353FF70212013557F88E
:100AA3000212013571FA02120135888D02120135E5
:100AB300AD8D021201357A8E021201354E8F02126C
:100AC3000135BB8F02120135FB8F0212013597905E
:100AD30002120135CB9102120135A69202120135A1
:100AE300059302120135919302120135FF9302120D
:100AF30001358B9402120135D194021201354395CD
:100B030002120135D595021201357696021201358E
:100B1300969602120135DE960212013527970212CC
:100B23000135439702120135699702120135E397A4
:100B330002120135F1970212013580980212013534
:100B4300E99802120135A8FA021201352DFB0212AF
:100B530001356FFB0212013553FC02120135C0FC53
:100B63000212013504FD0212013548FD021201355E
:100B730075FD021201359DFD02120135D5FD0212EC
:100B8300013513FE021201353AFE02120135B4FE9D
:100B930002120135FEFE02120135E99501120135FB
:100BA300889701120135C09901120135149A011277
:100BB30001353F9A011201351B9B011201354B9BF5
:100BC300011201357A9B011201358D9B011201350A
:100BD300CE9B01120135FB9B01120135499C011289
:100BE3000135859C01120135CA9C01120135179DFF
:100BF30001120135919D01120135D29F0112013578
:100C0300BCA101120135F8A10112013587A301121C
:100C13000135CCA3011201353FA40112013594A47F
:100C23000112013599A40112013542A501120135C2
:100C33000EA60112013598A60112013524A701124F
:100C4300013543A80112013554A801120135CAC167
:100C53000212013543C202120135FDC702120135EA
:100C630008C902120135B1CA021201353FCB021283
:100C73000135776400120135F864001201352565EA
:100C8300001201356E65001201356F6600120135E1
:100C9300B36600120135E96600120135656800127A
:100CA3000135E768001201350269001201357369E5
:100CB30000120135306A00120135F36A0012013562
:100CC300816B00120135386C001201354B6C001238
:100CD3000135E46C001201357B6D00120135A26D04
:100CE300001201350B6E00120135556E00120135ED
:100CF300A36E00120135486F00120135E66F001232
:100D03000135737000120135E470001201352B7147
:100D130000120135837100120135B57100120135DE
:100D23006F7200120135767300120135BF73001222
:100D33000135DC7300120135FB73001201352E758A
:100D430000120135E575001201350A7600120135EE
:100D53001F76001201358F7600120135D07600120E
:100D63000135F4770012013575780012013559AE5B
:100D730002120135A4AE02120135B0AE02120135E2
:100D830084AF021201359BAF02120135D8AF0212B4
:100D9300013509B00212013541B00212013597B095
:100DA30002120135ADB002120135E9B0021201356C
:100DB300FCB00212013523B10212013557B1021200
:100DC30001357DB202120135C7B302120135C3B436
:100DD30002120135E0B502120135F5FF01120135AA
:100DE300C3CB01120135FECB0112013550CF0112E5
:100DF3000135ACD0011201356BD101120135D2D4CA
:100E030001120135BCD50112013508D60112013595
:100E130022D6011201355FD6011201356AD60112BD
:100E23000135A9D601120135B2D6011201355CD7BD
:100E33000112013533D80112013587D8011201356A
:100E4300E4D80112013556D90112013577A80112F0
:100E53000135D6AB01120135DCAB011201350DB3FF
:100E63000112013514B70112013508A5031201352A
:100E73009EA503120135B4A5031201350DA6031275
:100E8300013551A6031201358BA60312013523A7A1
:100E93000312013592A7031201359BA703120135F3
:100EA300A7A703120135C1A703120135EBA703124C
:100EB300013500A80312013562A80312013589A880
:100EC30003120135688D03120135758D0312013547
:100ED3008F8D03120135C28D03120135008E03126B
:100EE3000135658E031201357A8E03120135858E25
:100EF30003120135928E03120135A98E03120135B7
:100F0300B78E03120135C28E03120135CE8E031242
:100F13000135DD8E03120135E88E031201350B8F87
:100F230003120135AF8F03120135BF8F0312013551
:100F3300D98F03120135F68F031201351190031275
:100F43000135369003120135419003120135569055
:100F5300031201356A9003120135CB900312013558
:100F6300D19003120135D79003120135DD9003129E
:100F73000135F590031201352891031201350580DF
:100F8300021201359C8002120135348102120135AF
:100F93002482021201355B82021201356E82021233
:100FA3000135DC82021201357784021201359E84F9
:100FB3000212013540850212013575850212013591
:100FC300868502120135FF85021201352086021241
:100FD300013538860212013590870212013599894D
:100FE30002120135E98B02120135EC8C0212013534
:100FF3003B8D02120135A5DA01120135A2DB011284
:1010030001358DDC0112013597DC01120135B9DCA4
:1010130001120135C5DC0112013517DE011201355C
:1010230046DE0112013576DF01120135B8DF011208
:101033000135E4E001120135BAE1011201350CE298
:10104300011201356BE201120135A2E201120135F1
:10105300DDE20112013578E60112013591E6011254
:10106300013513E70112013521E70112013576E756
:101073000112013584E701120135F1E7011201354F
:1010830063E801120135A9E8011201350C99021236
:1010930001352E9902120135189B02120135BD9EAE
:1010A3000212013500A002120135DAA00212013545
:1010B3005DB80312013582B803120135F3B8031288
:1010C30001356DF70112013576F7011201357FF70E
:1010D30001120135B0F801120135CFFA01120135C1
:1010E30005FB011201353FFB0112013575FB0112AE
:1010F3000135AFFB01120135E3FB011201350FFC92
:101103000112013558FC0112013592FC011201351F
:10111300DAFC0112013530FD0112013565FD0112C2
:101123000135C0FD01120135FAFD011201354BFEF7
:101133000112013581FE01120135BBFE0112013599
:10114300E9FE011201350CFF01120135C3C503127B
:101153000135EFC5031201354AC60312013554C6E2
:101163000312013564C603120135B7A80312013512
:10117300DEA80312013508A9031201359AFF0112F3
:101183000135AA4F00120135125200120135C55321
:10119300001201352254001201351F55001201358A
:1011A300AF5500120135345600120135595600125D
:1011B3000135515900120135C75900120135B85A8A
:1011C30000120135F25A00120135325B001201356B
:1011D300D85C001201352D5D001201357A5D0012D5
:1011E3000135E85D001201350F5E00120135295EFD
:1011F300001201353F5F001201354F5F00120135C8
:10120300DB6000120135FD6000120135336100120D
:101213000135E16200120135206300120135526489
:10122300001201358E8403120135E6840312013561
:101233002E86031201359D86031201354C87031256
:1012430001356B8703120135BF8703120135FD8713
:10125300031201353EFF021201354FFF0212013521
:10126300F2FF02120135FCC7031201353BC803121A
:101273000135E4FF0112013517C40312013527C4F8
:10128300031201353CC403120135F0C403120135C6
:101293001EC103120135A2C10312013508C2031294
:1012A3000135DDBE0312013504BF031201355ABFF8
:1012B300031201356DBF03120135BFBF03120135A0
:1012C300FEBF0312013501C003120135A3950312BA
:1012D3000135B79503120135309603120135059791
:1012E30003120135D798031201353C9903120135D6
:1012F300859903120135809D03120135E49D031284
:101303000135869E03120135D59E031201351E9FBA
:101313000312013514A003120135F87F00120135C1
:10132300B5B4031201352BB6031201358CB6031283
:10133300013521C2031201356DC203120135D5C82F
:1013430003120135E1C80312013515C70312013534
:101353007FC70312013565BD031201358EBD03122C
:101363000135B7BD03120135CFBD0312013511BEDF
:1013730003120135ADE102120135B7E10212013565
:10138300F7E10212013540E2021201357AE202125C
:101393000135D0E202120135EFE202120135F8E223
:1013A3000212013549E30212013572E302120135DB
:1013B30087E302120135F7E30212013585E40212D5
:1013C3000135C9E402120135F1E40212013570E579
:1013D30002120135B3E502120135F0E502120135BF
:1013E30002E60212013521E6021201352AE6021253
:1013F3000135F4E602120135C7BB0312013518BCEF
:1014030003120135A1BC0312013507BD03120135D7
:1014130085AB03120135AFAB03120135A9AC03123F
:101423000135D8AC031201355EAD0312013520C37B
:1014330003120135BBB003120135F1B003120135BC
:101443002AB10312013583B2031201356EC60312AA
:10145300013584C6031201358EC603120135E4C675
:1014630003120135997F0012013527D40212013589
:10147300E4D4021201351FD50212013547D50212F9
:101483000135A9D502120135F5D50212013555D61C
:1014930002120135E6D602120135E2D702120135F6
:1014A3006FD902120135F2D90212013556DA02124E
:1014B30001356DDA0212013563DB02120135AFDB50
:1014C3000212013500800312013515800312013524
:1014D300C580031201350581031201351E810312F4
:1014E30001355181031201359E8103120135D281E9
:1014F300031201351482031201351B8403120135D3
:1015030081840312013532E901120135E9EC01123C
:1015130001357BEE01120135D2EE01120135F1EEF8
:10152300011201356FEF0112013501F1011201358D
:10153300E5F101120135F6F501120135CAF6011282
:10154300013519B8021201353FB802120135F9BB52
:101553000212013570BD0212013550BE021201356F
:1015630059BF021201355CBF02120135EABF0212F4
:101573000135EDBF0212013545C00212013548C0E5
:10158300021201358FC70312013533F102120135FF
:10159300AFF102120135CCF102120135FFF2021252
:1015A300013572F30212013575F40212013513BAD3
:1015B300031201357ABA03120135DFBA031201357A
:1015C30066BB0312013545C8031201358BC80312EC
:1015D3000135B7C803E066701008A3E066700A0817
:1015E300A3E066700408A3E06622C3E7960809E750
:1015F300960809E7960809E79622C3E09608A3E050
:101603009608A3E09608A3E09622C008C3E096F5E7
:101613000808A3E096420808A3E096420808A3E05E
:101623009645087001D3D00822E9799EC608CAC638
:1016330008CBC608CCC6C370207996CACBCC701928
:10164300798ECBCC70137986CC700EF9802ACA338D
:10165300CACB33CBCC33CC331930E7F2CCCBCA3340
:1016630050147004EA30E00DE4CA3ACACB3BCBCC49
:101673003CCC500209C3E913C6CC182313C6CB18BC
:10168300C6CA18C6F9221216C920F01430E72B7403
:10169300FFFCFBFA747F8022E4FCFBFA7480801A5F
:1016A300B48008BC00F2BB00EF800F50EBF9E4C339
:1016B3009AFAE49BFBE49CFCE499C6CC18C6CB18CD
:1016C300C6CA18C6F922E4C9C608CAC608CBC6D317
:1016D300330308CCC63392F0C3947F402E94184052
:1016E30019C9B90704CACBCC225025C309CA33CAC6
:1016F300CB33CBCC33CC33D9F422F4600DC9CCC378
:1017030013CB13CBCA13CAD9F6CC22E4FCFBFA22BF
:1017130014FCFBFA22E62618461846184622E72749
:1017230019471947194722181818E6084608700977
:10173300E626087005E633F4220822191919E70989
:1017430047097009E727097005E733F4220922E600
:10175300084608C3134608336002E633F422E70958
:101763004709C3134709336002E733F42200121712
:1017730052604F1217616012E7548066F612172AFF
:101783007011121721703B090909F4F618F618F6BF
:1017930018F62212173E701512171808080860EA87
:1017A300E6447FF618768018E4F618F62212171826
:1017B30060161217217012E4F608F608F608E654CC
:1017C30080F609090918181822EAC0E0EBC0E0EC1A
:1017D300C0E0EDC0E0E687F0A4FBACF008E687F0DC
:1017E300A42CFCE435F0FA1809E687F0A42C4B602E
:1017F300027401CA35F0FCE433FB09E687F0D2F743
:10180300A42CCB35F0FC1908E687F0A42BCC35F0DB
:10181300FBE433FD0819E687F0D2E7A42C4ACB3565
:10182300F0CD3400FC09E687F0D2E7A42DCC35F0E7
:10183300FDE433FA0918E687F0D2F7A42CCD35F08E
:10184300CA3400FC08E687F0D2E7D2F7A42ACC35E5
:10185300F07A7E20E70B0ACB33CBCD33CDCC33CC20
:1018630033CB3350147004ED30E00ED2F1E4CD3DB0
:10187300CDCC3CCC3B5005DA05C2F1EB547FC633EB
:1018830008E63392F0FBE73309E733C39A502D2B75
:1018930070190C0D4C4D70151806E608C333700D06
:1018A30020F10AA2F013F6E418800B4024E4F6308A
:1018B300F002768018F618F618F68024D33B1450FD
:1018C3001074FFA2F013F6187680E418F618F68069
:1018D3000FA2F013F618E63303F618ECF618EDF63C
:1018E300D0E0FDD0E0FCD0E0FBD0E0FA22121752AA
:1018F300700418181822121761700D74FFF6181966
:10190300F61819F61819F622E7548066F612171816
:10191300700F12172170F014F608F608F608F68017
:10192300D1121721700CF608F608768008E6447F7A
:1019330080EC121741700C12172D60BFE65480F62D
:10194300E480BB12172D700519191980A5E8697079
:101953000C763F18768018F618F6E8F922E6CDC023
:10196300E018ECC0E0E633CD33CDD313F6E719FC32
:10197300E7191933CC33C3947F400ECD9D5024080F
:10198300E65480F6E418F6800FF4043D145014086E
:10199300E6447FF6187680E418F618F6D0E0FCD01B
:1019A300E0FD22CCD313CCFD18E4C6CBC0E018E491
:1019B300C6CAC0E00808ED08C633E613F618E433D8
:1019C300C675F003C3CA97CA09CB97CB199C4004C9
:1019D3007D08802EBD0003021A9916B6FF05060680
:1019E300081618C3CA33CACB33CB33CA27CA09CBA9
:1019F30037CB193CC37D08803E187D0820E75CC6C1
:101A030033C6CA33CACB33CB33DDF1D5F0EB30E782
:101A13007BCA97CA09CB974ACB199C406F4B702559
:101A2300E620E0218066187D08C3CA97CA09CB97D0
:101A3300CB199CD3C633C6CA33CACB33CB3350C9B5
:101A4300DDE7D5F0E1D3E4C636C608C636C608C618
:101A530036C608C636C61818188031C3CA97CA09CD
:101A6300CB97CB199CB34097C633C6CA33CACB3383
:101A7300CB33DD34D5F02EC6A2E0C640C8CA27CA90
:101A830009CB37194A70BECB3CB480B90808E6339A
:101A930008E633601F181818D0E0FAD0E0FBD0E056
:101AA300FCD0E0FD22187D08CA27CA09CB37CB1921
:101AB3003CD3808013F618E4B67F11F618B6FF0EF8
:101AC300F618C60470D20808768080CAF618F6188D
:101AD300F680C5080808EAC0E0EBC0E086F0E7A49A
:101AE300FA180986F0E7A42AFA180986F0E7A42A67
:101AF300FA180986F0E7A42AFA1986F0E7A4FBE5A9
:101B0300F02AFA190886F0E7A42BFBE5F03AFA1954
:101B13000886F0E7A42BFBE5F03AFA18180986F0DB
:101B2300E7A4C5F02BFBE43AFA1908E7C5F0C6A40D
:101B330026F6E5F03BFBE43AFA1886F0E7A4F6E56F
:101B4300F00826F6E43B08F6E43A08F6D0E0FBD0CA
:101B5300E0FA22E4CFC0E0E4CEC0E0E4CDC0E0E4AC
:101B6300CCC0E075F020E626F608E633F608E63347
:101B7300F608E633F6181818EC33FCED33FDEE33B4
:101B8300FEEF33FFC3EC9709ED9709EE9709EF9743
:101B9300191919400FFFEC97FC09ED97FD09EE9712
:101BA300FE191906D5F0BFECF709EDF709EEF709B1
:101BB300EFF7191919D0E0FCD0E0FDD0E0FED0E03A
:101BC300FF226016080808C6C313C618C613C61832
:101BD300C613C618C613C6D5E0EA2270090808085A
:101BE300226016181818C6C333C608C633C608C6FB
:101BF30033C608C633C6D5E0EA22E627F60809E667
:101C030037F60809E637F60809E637F622E026F63E
:101C130008A3E036F608A3E036F608A3E036F6227A
:101C2300E026F008A3E036F008A3E036F008A3E0CE
:101C330036F022C3E697F60809E697F60809E69711
:101C4300F60809E697F622C3E096F008A3E096F0BB
:101C530008A3E096F008A3E096F022E056F608A366
:101C6300E056F608A3E056F608A3E056F622E0563F
:101C7300F008A3E056F008A3E056F008A3E056F0FE
:101C830022E0F608A3E0F608A3E0F608A3E0F622B4
:101C9300E6F008A3E6F008A3E6F008A3E6F022E0E6
:101CA300FAA3E0FBA3E0FCA3E0FD22E0F8A3E0F944
:101CB300A3E0FAA3E0FB22E8F0A3E9F0A3EAF0A390
:101CC300EBF022CAC0E0E6F0A308DAFAD0E0FA2289
:101CD300CAC0E0E0A3C582CCC582C583CDC583F06D
:101CE300A3C582CCC582C583CDC583DAE6D0E0CA5D
:101CF30022C3E498F8E499F9121D358026C3E49AC7
:101D0300FAE49BFBE920E7E9121D35E498F8E4992E
:101D1300F922C3E498F8E499F9121D35E498F8E43C
:101D230099F9C3E49AFAE49BFB22EB20E7CFE9207D
:101D3300E7E0B90010BB0008E88AF084F8AAF022B3
:101D4300E4FBC8FA22EB70227B10C833C8C933C93D
:101D5300335007C39AC3DBF280069A50012ADBEAA9
:101D6300C833F4C8C933F4C9FA2275F008E4C83398
:101D7300C8C933C933C99AC99B5004C92AC93BD5B9
:101D8300F0ECFBC833F4C8E4C9FA22600D08C6A21C
:101D9300E713C618C613C6D5E0F322600C08C6C302
:101DA30013C618C613C6D5E0F422700422600D18BA
:101DB300C6C333C608C633C6D5E0F41822251810A7
:101DC300AF08F518400C15198008F51840021519CD
:101DD300D2AF2200C0D0251810AF08F518500C055B
:101DE300198008F51850020519D2AFD0D022251852
:101DF300F58210AF08F518400C15198008F5184046
:101E0300021519D2AF851983222518F582E43519F5
:101E1300F583222518F8E43519F9222518FAE43553
:101E230019FB222518FCE43519FD22E4732518C596
:101E330082C0E0E51934FFC583C0E0E518C395828D
:101E430024F810AF088583198582188008858319C3
:101E5300858218D2AFCEF0A3E520F0A37808E60878
:101E6300F0A3DEFAEFF0A3E58124FAF8E608F0A385
:101E7300E608F0A3E608F0A30808E608F0A3E608DE
:101E8300F0A315811581D0E0FED0E0F8158115810E
:101E93001581E8C0E0EEC0E0222518C582C0E0E568
:101EA3001934FFC583C0E0E518C3958224F910AF48
:101EB300088583198582188008858319858218D23D
:101EC300AFCEF0A3E520F0A37808E608F0A3DEFA8E
:101ED300EFF0A3E58124FBF8E608F0A3E608F0A3FE
:101EE3000808E608F0A3E608F0A315811581D0E001
:101EF300FED0E0F815811581E8C0E0EEC0E0228550
:101F03001983851882E0A3FEE0A3F5207808E0A3F7
:101F1300F608DFFAE0A3FFE0A3C0E0E0A3C0E0E03F
:101F2300A3C0E0E0A3C0E0E0A3C0E010AF08858257
:101F3300188583198008858218858319D2AFD083C9
:101F4300D082020132851983851882E0A3FEE0A3C3
:101F5300F5207808E0A3F608DFFAE0A3FFE0A3C0CA
:101F6300E0E0A3C0E0E0A3C0E0E0A3C0E010AF085E
:101F73008582188583198008858218858319D2AFD5
:101F8300D083D08222C0D02518C582C0E0E51934A1
:101F9300FFC583C0E0E518C3958224F310AF08851D
:101FA30083198582188008858319858218D2AFC862
:101FB300F0A3E9F0A3EAF0A3EBF0A37908E709F0B3
:101FC300A3D8FAECF0A3EDF0A3EEF0A3EFF0A3D0C7
:101FD300E0F0A3D0E0F0A3D0E0F0A3E520F0A3E588
:101FE300F0F0A322851983851882E0C0E0A3E0F90D
:101FF300A3E0FAA3E0FBA37808E0F608A3DFFAE086
:10200300FCA3E0FDA3E0FEA3E0FFA3E0C0E0A3E0A8
:10201300C0E0A3E0F5D0A3E0F520A3E0A3F5F01022
:10202300AF088583198582188008858319858218EE
:10203300D2AFD082D083D0E0F8D0E03274048006EF
:10204300740280027401C0E0F404121DF1D0E012A6
:102053001CC6227404800474028000CCC0E0EDC06E
:10206300E0E518C39CCCAD1950011D10AF068C18C8
:102073008D1980068C188D19D2AF121CD3D0E0FDB8
:10208300D0E0FC22D083D082E9C0E0E493A3C386EE
:10209300F0C5F095F0F908E493A386F0C5F095F048
:1020A300700BE493A3C3994005E9048002A3E4758C
:1020B300F002A42582F582E5F03583F583D0E0F9BB
:1020C300E493A3C0E0E493C0E022D083D082ECC0C9
:1020D300E0EDC0E0E493A3FCE493A3FDED4C600DBD
:1020E300122119EC24FFFCED34FFFD80EFE493A3F0
:1020F300FCE493A3FDED4C600D122158EC24FFFC8E
:10210300ED34FFFD80EFD0E0FDD0E0FCE493A3C00D
:10211300E0E493C0E022C0E0C3E493960874019323
:102123009618400FE493667008087401936618705C
:10213300007019A3A3C3E49396087401939618A39C
:10214300A3400DD0E0D0E0D0E0022109A3A3A3A3D4
:10215300A3A3D0E022C0E0C0F088F0E49366700847
:102163000874019366187000A8F0A3A3700BD0F055
:10217300D0E0D0E0D0E0022109A3A3D0F0D0E02248
:1021840074F6121E9CEAFEEBFF8C088D09EE2434D3
:10219400F8E43FF9E8FCE9FDEE2435122497FAEE61
:1021A4002437122497F88508F0A4C885F00A850915
:1021B400F0A4250AF9EA28F8E439F97A257B001213
:1021C4001D35EA8C828D83F0FA131313541FF8EE35
:1021D40028F8E43FF9E8245DF582E439F583E0C0AA
:1021E400E074075AF8D0E0B800028004C313D8FCA6
:1021F400A2E0EE50082434F582E43F80182436121D
:102204002497F5F0EA84A8F0EE28F8E43FF9E824EE
:1022140038F582E439F583E0F97F03021F4874F747
:10222400121E9CEAFEEBFFEE2434122497C0E0EE6B
:102234002435F582E43FF583D0E0F08E828F83A3CA
:10224400A3A3A3A3A3A3C082C0838E828F83A3A3CB
:10225400A3A3A3E0F8A3E0F9D083D082E0C398F568
:1022640008A3E099F509EE247F1224976401703ED7
:10227400EE2480F582E43FF583C082C0838E828F92
:1022840083A3A3A3A3A3E0240108A3E03400F9D00B
:1022940083D082E0687003A3E06970127CB17D048E
:1022A400120D1AEE247FF582E43FF583E4F0AC08C6
:1022B400AD09EEFAEFFB122184E9F9122EE67F0252
:1022C400021F48C082C083851882851983E0F8A361
:1022D400E0F9C3EA9CEB9D5010C3EC98ED99401BC8
:1022E400C3EA98EB995014800EC3EA98EB9940071F
:1022F400C3EC98ED994004790180027900D083D031
:102304008222EAC39CFAEB9DFB2274EF121E9C907E
:102314000376E064086005E06407702A9061C8E011
:1023240060249003A4E0F4601DE0F875F00BA4C8E9
:10233400AAF02AF974A628FE740339FF8E828F83CB
:10234400A3A3A3E0700302241C906060E0C0E0EE4D
:102354002468F582E43FF583D0E0F0750C21750D17
:1023640005750800750900E5D914F50AE5D9540383
:10237400F50E60127403650E6043E50A600AEE24EC
:10238400671224977002807590051CE06401601F39
:1023940012249460047A0480027A00E50AC39AFA4B
:1023A40095E0FB120BAC8A088B09EA45097005120B
:1023B4000F60806412249470048A0C8B0DE50A600B
:1023C40012850C82850D83F50BE5D9F0A3150BE579
:1023D4000B70F6122494604474FC250AF50A780CF8
:1023E400122043AC0AA90EEEFAEFFB120DD47402CC
:1023F400121DD6E97026AA08AB091213FE793D8E88
:10240400828F83A3A3A3A3E0FA7B00120A0EEEFA41
:10241400EFFB120D3E120DE67900806F7403650E1A
:102424006051850A107511007810122043AC0CAD70
:102434000DAA08AB09120D987402121DD6EE246879
:1024440012249764807004747F8001E0F50C780C8A
:10245400122047E50EF50C780C122047A90AAC08A7
:10246400AD099003A4E0FA7B001209E47402121D82
:10247400D68013900376E06408600BAC0CAD0DEECF
:10248400FAEFFB120E5E120F6C79017F0A021F48ED
:10249400EE2483F582E43FF583E02274F2121E9C5D
:1024A40074FC121DC0EAFEEBFF8909A2AFE433F508
:1024B40008C2AF022569E0601B780C122043AC0B04
:1024C400A90EEEFAEFFB120DCE7402121DD674049F
:1024D400250BF50B7401250BF5D9850ED9E50B6099
:1024E40018F50A850C82850D83E0F5D9A385820C45
:1024F40085830D150AE50A70EA75E195EE2463F803
:10250400E43FF97A007B00A2AFE433F50BC2AF8855
:10251400828983E0FCA3E0FDEC4D603A88828983E4
:10252400E0FAA3E0FB8A828B83E0FCA3E0FD8882CF
:102534008983ECF0A3EDF08A828B83E4F0A3F08826
:10254400828983E0FCA3E0FDEC4D700A88828983D4
:10255400A3A3E4F0A3F0E50BA2E092AF1213FE9064
:1025640004B8E004F0EE2463122497F8A3E0F9E839
:10257400496064EE24631224972402F8A3E0340033
:10258400F988828983E5822402F50CE43583F50D0C
:10259400E0F50BA3E0F50EEE2462122497640170BB
:1025A400369061D0E0F812249460047C0480027CAC
:1025B400007480C398FA95E0FBE50B2CF8E4340032
:1025C400F9E82402F8500109C3EA98EB99A2D2650C
:1025D400D03340030224BA9004B8E0604D9004B9AB
:1025E400E0F89004B8E0C398500C74026509703A9E
:1025F4009004BAE060348E828F83A3A3A3A3E08502
:10260400188285198312263E7402121E0CE81226C3
:102614003E9004B7E028F07402121E26AA18AB19E3
:102624007901120A389004B8E4F0E508A2E092AF08
:102634007404121DD67F07021F48F0A3E4F090042F
:10264400B8E0F8228521878522C622C0E074EB1207
:102654001F88A2AFE433F508C2AF759B0090618276
:10266400E0A2E05030E591A2E0502A7591FE740199
:10267400652170211227E2120EAC1227D0122056C7
:10268400122C907404121DD6E964017005790112AC
:102694000EF412230E906182E0A2E5505DE591A252
:1026A400E550577591DF900376E064076005E064B8
:1026B40008702F1227E274016521703E120EAC12CD
:1026C40027D0122056122C907404121DD6E96401EE
:1026D40070057901120EF47901EEFAEFFB12249FD2
:1026E4008018E0640D7013900398E004F06428707F
:1026F40002E4F07A00E0F9120F72906182E0A2E63F
:1027040040030227A5E591A2E640030227A575919F
:10271400BF900376E064057008120E94120EA08038
:1027240003120E9A752100120F00E9900377F079D5
:1027340000120EF4120C847A017B00900375E0F908
:102744001213CE907803E064427056900520E01492
:10275400F0704EC2AF12275C00782AD0E0F618D091
:10276400E0F6E59F5407F87005750DFF8003750DBD
:102774007FC4C0E07829E6F50A08E6550DF50B7428
:102784000B780A121D9ED0E0250AF8906270E0A230
:10279400E740F8E8C333906272F0906270E0D2E0F0
:1027A400F0906181E0A2E35009E5E9A2E3500375EA
:1027B400E9F7A3E0A2E75009E591A2E75003759178
:1027C4007FE508A2E092AF7F08021FE78E828F8325
:1027D400E0F8A3E0C82416F582E438F583229003D8
:1027E400A4E0F875F00BA4C8AAF02AF974A628FE90
:1027F400740339FF22C0E0C0D0C082C083906183DB
:10280400E0A2E05009E5BFA2E0500375BFFEE0A2DC
:10281400E15009E5BFA2E1500375BFFDE0A2E2501B
:1028240009E5BFA2E2500375BFFBE0A2E35009E54E
:10283400BFA2E3500375BFF7E0A2E45009E5BFA2CD
:10284400E4500375BFEFE0A2E55009E5BFA2E550EF
:102854000375BFDFE0A2E65009E5BFA2E6500375A9
:10286400BFBFD083D082D0D0D0E032C0E074F212A7
:102874001F88E5A7A2E6500FE5A1A2E6500953A7D9
:10288400BF75A1BF1228C3E5A7A2E5500CE5A1A21C
:10289400E5500653A7DF75A1DFE5A7A2E15009E5DE
:1028A400A1A2E1500375A1FDE5A7A2E2500CE5A1A8
:1028B400A2E2500653A7FB75A1FB7F01021FE77438
:1028C400F7121E9C752101900376E06406701512C0
:1028D4000E0A8A828B83A3A3A3A3A3A3E0FAA3E093
:1028E400FB120E82A2AFE433FED2AF90037CE0640D
:1028F4000170187A207B00900375E0F91214E87ACD
:10290400207B00900375E0F91213D4906182E0D229
:10291400E6F090051DE0602185C622801690037BB9
:10292400E064017008E5C654F84405F5C653BEFCDE
:102934001226487401652160E4EEA2E092AF7F02A2
:10294400021F48008E238F248582288583278518BB
:1029540082851983E0CEA3E0CF852882852783EB87
:10296400C9EAC8EDCBECCA75F010C3E833C8E93343
:10297400C9EA33CAEB33CBC3EA9EF526EB9FF525B0
:10298400B35004AB25AA26EC33CCED33CDD5F0DA25
:10299400AE23AF242274E9121E9C74FA121DC0EAFD
:1029A400FEEBFF8C0A8D0B120EB8EAF8EBF9ECFA89
:1029B400EDFB8E828F83121CBA900376E024F7C35A
:1029C40094055006751401022B00120E0A8A088B16
:1029D40009EA45097003022AFDEEFCEFFDAA18ABD3
:1029E40019120EB2850882850983A3A3780C121CE0
:1029F400849082B5780C121C5E85188285198378C0
:102A040010121C849082B57810121C5E780C791018
:102A14001215ED501F780C7910121C36908295789F
:102A24000C12160D4047850C14850D15850E168560
:102A34000F178045908295851014851115851216FF
:102A44008513177814790C121C36781412160D504D
:102A54001C75140075150075160075170178147926
:102A640010121C367814790C121BFD800C7514019D
:102A740075150075160075170074097814121BDE9D
:102A84009082D5780C121C847814790C121B56850C
:102A94000882850983A3A3A3A3A3A3122B1E121D3B
:102AA40035880C890DE4F50EF50F7814790C121B9A
:102AB400FD7404121E0C122B1E121D35E8FA8A0C2A
:102AC400E4F50D7814790C1215ED50077814790C8F
:102AD400121C36900376E06408600AE06406600520
:102AE400E064057020908291781412160D501690AF
:102AF400828D7814121C10800C75140075150075E5
:102B04001600751700850A82850B837814121C93AE
:102B14007406121DD67F10021F48E0F8A3E0F97A6C
:102B2400D07B032274F7121E9C120ECA90051BE080
:102B340064017010906245E4F0A3F053F4F343FE93
:102B44000C5390F3120E70E5C654B84441F5C6E533
:102B54009E5447644170F8906185740FF090051994
:102B6400E0F47002A3E0604E90051AE0600814607F
:102B74001B14602E8040750801750900900519E04A
:102B84007808121DADE508F45280802A7508017595
:102B94000900900519E07808121DADE508F452907B
:102BA4008014750801750900900519E07808121D54
:102BB400ADE508F452A079007F02021F4874F712B1
:102BC4001E9CE9FEEAFF120ECA74016E700C7A8034
:102BD4007B00900375E0F91213CE902F8CE493F4EC
:102BE4006008E493F9120C78800953C6B8E59E5442
:102BF4004770FA120E7690051BE064017003120C04
:102C04009C900519E0F47002A3E0604B90051AE073
:102C1400600814601A14602C803D75080175090061
:102C2400900519E07808121DADE5084280802875EA
:102C34000801750900900519E07808121DADE50832
:102C440042908013750801750900900519E0780811
:102C5400121DADE50842A0120E0A8A088B09A808C5
:102C6400A909E8496014E5E170FCE82414F582E45C
:102C740039F583E0F46003E0F5E174016F700A7ADA
:102C840001900375E0F9121458022BBC74F1121E62
:102C94009C8A088B098C0A8D0B9082B57808121CCB
:102CA4005E740F121E0C780C121C849082B5780C82
:102CB400121C5E7808790C1215ED908295501078EC
:102CC40008790C121C36780812160D4014800E7800
:102CD4000C7908121C36780C12160D5004790180F8
:102CE4000279007F08021F4874ED121E9C8A088B2B
:102CF400098C0A8D0B9082B57808121C5E7413122D
:102D04001E0C780C121C849082B5780C121C5E7810
:102D14000C79081215ED40117808790C121C36AAAA
:102D240008AB09AC0AAD0B80227510007511007553
:102D340012007513017810790C121C36781079087A
:102D4400121BFDAA10AB11AC12AD137F0C021F486D
:102D54009082B57808121C848A828B837808121CAE
:102D6400717F04021F4874F5121E9C8C828D837837
:102D740008121C848A828B837808121C4A122DC282
:102D8400C3E09CF0A3E09D122DB4402290827178A0
:102D940008121C848A828B837808121C238A828BF3
:102DA40083A3A3A3A3E02420F0A3E0344EF080A0E7
:102DB400F088828983C3E09420A3E0944E22EA241D
:102DC40004F8E43BF98C828D83A3A3A3A3E0FCA3C2
:102DD400E0FD888289832274F5121E9CE9FE90042A
:102DE400D3E0FAA3E0FBEE29F8E433F9746028F5A4
:102DF40082748139F583E02AF508A3E03BF509786C
:102E040008122043908299121CA2122948740212BB
:102E14001DD68A088B098C0A8D0B74107808121B36
:102E2400C5AA08AB097F04021F4874F1121E9C8ACC
:102E34000C8B0D8C0E8D0F7411121E0C12205A74F3
:102E440011121E0CE02401F508A3E03400F509E496
:102E5400F50AF50B780C7908121AD690828978084D
:102E6400121C84780C7908121AD6AA0CAB0DAC0E7D
:102E7400AD0F1229487402121DD68B09EA45096068
:102E8400047A0180027A00EC2AFCE43DFD741312FA
:102E94001E0CE0F8A3E0F9E8FEE9FFECF8EDF97A9E
:102EA400717B02121D3588088909E4F50AF50B8E39
:102EB400828F837808121C93ECF8EDF97A717B0207
:102EC400121D358A088B0974057808121DAD8E828F
:102ED4008F83A3A3A3A3E508F0A3E509F07F080269
:102EE4001F48C082C083E9906000F0D083D0822262
:102EF400C0E074F2121F88A2AFE433FED2AFE589BA
:102F0400A2E04006E589A2E150031212BA758900D5
:102F1400758900C2C5751A00EEA2E092AF7F010266
:102F24001FE7C0E0C0D0E8C0E0E9C0E0A9A8D2AF84
:102F3400C2C7751A00E9A2E7E433F8E9A2E792AF41
:102F4400D0E0F9D0E0F8D0D0D0E032C0E074F21292
:102F54001F8874FB65DC702574FB65DE701F90624E
:102F6400ACE064FB70179062AEE064FB700F53E456
:102F7400FD79011214527A0879011212D27F0102EA
:102F84001FE7C2AF02000022FFFFFFFFFFFFFFFFAA
:102F9400C082C083E990164FF0D083D08202013200
:102FA40074F6121E30E99002E8F0900348E0F50848
:102FB40075090074027808121DADAA08AB09121431
:102FC400409002E91239579002E9123D44606F9033
:102FD4000348E075F003A4FAABF012144090030622
:102FE400123957900306123D44700B9002E9123DCA
:102FF400151214468048900306124CA97AFF7BFFF1
:103004001212247A0080198A08750900740278085B
:10301400121DAD12475174FF123157E4F0A3F00AA8
:10302400900348E0F8EAC39840DD79051208BE90A1
:1030340002E8E0F91207AA7A487B09120B4C02470E
:10304400F474F4121E308A088B09EB5480604790A4
:1030540002E8E0F91213B68A0A8B0BAE0AAF0BEE44
:103064004F602A8E828F83E064B0701A1208D0E910
:1030740060148E828F83A3A3A3A3E0F9EE2405FA40
:10308400E43FFB1208A0EEFAEFFB1213A4AA08E532
:10309400096480FB80047A007B000232A774F21278
:1030A4001E3074FB121DC0EAFEEBFFEE4F60457448
:1030B40003121E0CEEF0A3EFF0851882851983EC41
:1030C400F0A3EDF07402121E0CE9F0AA18AB191269
:1030D40007A4E9F50870757413121E0CE0F50AA331
:1030E400E0F50BE50A450B60638E828F831236E0B0
:1030F400EE4F700575080280537A067B0012144067
:103104008A0C8B0DA80CA90DE8497005750813806D
:103114003B88828983E4123157EEF0A3EF123273B5
:10312400E50AF0A3E50BF09002EC12326C9002EC8D
:103134006017E0FCA3E08003EAFCEBFD8C828D8346
:1031440012326C70F38C828D8312436CA90874055F
:10315400024F29F0A3124C8BA32274F2121E308961
:1031640008890C750D007403780C121DAD850C0ACA
:10317400850D0B9002EBF09002E912417712326A4E
:10318400602E1214467900801D890C750D0074029E
:10319400780C121DAD9002E91246108882F583A3C3
:1031A400A3E4F0A3F009900348E0F8E9C39840D9F8
:1031B400900348E0FA850AF0A4CAA8F0850BF0A4AD
:1031C40028FB1214408A0C8B0DAE0CAF0DEE4F7021
:1031D40003023260900348E0FC850AF0A4CCA8F016
:1031E400850BF0A428FD79001213927C0080318DA8
:1031F4000C750D007403780C121DAD8A828B83123A
:10320400326588828983E4F0123272A3A3F0A3F0BA
:103214000DEDC3950840D8EE250AFEEF350BFF0CE3
:10322400900348E0F8ECC39850288C0C750D00749A
:1032340002780C121DAD9002E9123265E8240250A6
:103244000109FAE9FB8A828B83EEF0A3EFF07D009B
:1032540080BFE5089002EBF0790080027913024FF9
:103264002C124614F922A3A3123D19EA4B22A312ED
:103274004C8BA3A3A32274F4121E307900EAA2E0BB
:10328400501F75083E750982780812204379107C16
:10329400047D007A517B161208B87402121DD6E917
:1032A400F980007F04021F02C082C0839002EC12E6
:1032B4003D44601C88828983A3A3E06A7003A3E071
:1032C4006B8882898370E8A3A3A3A3123D158004AD
:1032D4007A007B00022F9D74F2121E3074FD121DC1
:1032E400C0EAFEEBFF851882851983E4F0A3F0742D
:1032F40002121E0C7401F0123D417014120A86125F
:1033040014409002EF123957123D41700302346D9C
:10331400123A57EE2404F50AE43FF50B850A82F5C8
:1033240083E024FE603C24FC607424FE607E24FE62
:1033340070030233BD24FE70030233CA24FE7003FB
:103344000233D724FE70030233E424FE70030233F5
:10335400F124FC700302341224FE700302342A02A6
:103364003466120A869002F1EAF0A3EB1234791261
:1033740004ECE960030234669002F112205A8E8252
:103384008F83A3A3A3A3A3124CA9850882850983D1
:10339400123D151208887402121DD6023466AC1848
:1033A400AD19EEFAEFFB1208D6023435AC18AD199C
:1033B400EEFAEFFB1208DC8078AC18AD19EEFAEFE8
:1033C400FB1208E2806BAC18AD19EEFAEFFB1208A1
:1033D400E8805EAC18AD19EEFAEFFB1208EE8051EE
:1033E400AC18AD19EEFAEFFB1208F4804474021223
:1033F4001E16880C890D780C1220437402121E26A6
:10340400EEFAEFFB1208FA7402121DD68023AC18F0
:10341400AD19EEFAEFFB120900E9F8701674021206
:103424001E0CE4F0803CAC18AD19EEFAEFFB120967
:1034340006E9F8E8602C8E828F83A3E0641460228E
:10344400850A82850B83E09002F1F0851882851944
:1034540083123D159002F2123957E8A312347912FF
:1034640004E6EEFAEFFB12085E7402121E0CE0F999
:103474007403024F29F07CF17D028508828509835B
:10348400123D192274E8121E3074FA121DC074041D
:10349400121E0CECF0A3EDF08A128B13EA2405F54E
:1034A4000EE43513F50FEA2402F510E43513F51193
:1034B400851082F583123D151205DC8A0A8B0B7583
:1034C40008007C037D0079007AF17B02121392E5F7
:1034D4000E2402F516E4350FF5177402121E168831
:1034E4000C890D780C122043850E82850F83A3A3CB
:1034F400A3A3E0F50C750D00780C122043E50E240F
:1035040005F50CE4350FF50D780C12204385168271
:1035140085178312401C1207C27406121DD68A0C2A
:103524008B0DE50C450D70030236A98020851882A9
:10353400851983E088828983F005088518828519B6
:1035440083A3E0C0E01236EAD0E0F00508E50A24DF
:10355400FBFAE50B34FFFBC3E5089AE49B40030246
:1035640036A97E007F00851282851383A3A3A3A3BB
:10357400E0F5097809122047E4F514F515781412DA
:1035840020437514EE75150278141220439002EF4F
:1035940012205A7409121E0C12205AE50A24F9F951
:1035A400AC0CAD0D851082851183123D15120930C6
:1035B4007409121DD6E9600302364A850E82850F0E
:1035C40083A3A3A3A3A3A3A3E0F89002EEE06870EF
:1035D40075E0F5148E157814122043124CA6850E4E
:1035E40082850F83A3A3A3A3A3A3A3A3123D1512B0
:1035F400138C7402121DD6E9604C9002F2123D4401
:10360400703BE4F51478141220437CFF7DFF7907A6
:10361400851082851183123D1512089A7402121DB9
:10362400D6123D4A7017850E82850F83124E43745D
:1036340004121E0C12470412404D0236DD850C8222
:10364400850D831236E0A818A919881489157814F1
:103654001220437404121E0C12205A8516828517F8
:103664008312394D1207CE7404121DD68A0C8B0DA9
:10367400EE4F70030235261236EAEE1236F512408A
:1036840003EF1236F5F8A3E03400F9E50C450D60BC
:10369400030235318882898374FFF005081236EA03
:1036A40074FFF00508E508601A1313543F12395DDE
:1036B4001204F8E960099002F2123D151213FE7922
:1036C400008016850E82850F83124E437404121EE9
:1036D4000C12470412436C790A023FD6A3A3A3A396
:1036E400E0FEA3E0FF22A8089002F2E028124003C3
:1036F40022F00508089002F2E0282274E8121E3035
:1037040074FA121DC07402121E0C1239577404127A
:103714001E0CECF0A3EDF07402121E0CE024051252
:103724003FECE0F50CA3E0F50D7402121E0CE0244E
:1037340002F510A3E03400F511851082F583123DE3
:10374400151205DC750800750900EA24FCFEEB344B
:10375400FFFF8008050CE50C7002050DA808C3EEF8
:1037640098EF94005003023909A818A919880E8902
:103774000F780E122043851482851583A3A3A3A377
:10378400124CAD122043E5142405F50EE43515F56D
:103794000F780E12204385148285158312394B123B
:1037A40007C27406121DD68A0E8B0FEA450F7003EA
:1037B400023909EA2404F516E4350FF51785168253
:1037C400F583E0F50CA3E0F50D85188285198312C5
:1037D4004CA98A828B83A3A3A3E0F9851082851167
:1037E40083123D151207B0E9F50960030239097423
:1037F40002121E0C124013F5097809122047E4F551
:1038040012F51378121220437512EE751302781212
:103814001220439002EF12205A7407121E0C122039
:103824005AEEF9AC0EAD0F851082851183123D1549
:103834001209307409121DD6E9F509600302390929
:10384400E508703FE4F50EF50F780E1220437CFF77
:103854007DFF7909851082851183123D1512089A1E
:103864007402121DD6124039700D7404121E0C120B
:103874003940791102393D9002EEE024029002F2BF
:10388400F080149002F2E0FA9002EEE07900240253
:103894005001096A497072A8089002EEE0FAE82A19
:1038A400FAE43400FBEE9AEF9B405A8516828517A2
:1038B40083E0C0E09002F31236EFD0E0F005088513
:1038C4001682851783A3E0C0E0089002F31236EF56
:1038D400D0E0F005089002EE124CAD122043124CD9
:1038E400A6A808123FE012137A7402121DD69002A1
:1038F400EEE02508F50874FF650C700474FF650D8F
:103904006003023758E508601F9002F2E0F5F0E525
:10391400088412395D1204FEE960099002F3123D35
:10392400151213FE79008011E509700375090A74F4
:1039340004121E0C123940A909023FD612417BE53C
:103944000CF0A3E50DF022A3A3124F38AA0CAB0D83
:1039540022A3A3EAF0A3EBF0229002F1F07CF17D24
:1039640002851082851183123D192274EC121E30D7
:1039740074FC121DC012447C7402121E26123D0FE8
:103984001207C88A0C8B0DEA450D7003023A4712E0
:103994003A57A818A9198810891178101220437C65
:1039A400FF7DFF790B850882850983123D15120876
:1039B4009A7402121DD6123B4D700C850A82850B37
:1039C4008312404A023A548E828F83A3A3A3A3E0B6
:1039D400F5127812122047E4F512F513781212202A
:1039E400437512F1751302781212204378101220D5
:1039F400437409121E0C12205A7409121E0CE0F9A9
:103A0400AC0CAD0D850882850983123D1512093071
:103A14007409121DD6E9FE70157CF17D02850882B9
:103A2400850983123D15120504E970098020741676
:103A34006E70027E009002F2123D151213FEEE70BB
:103A440004800B7E01850A82850B83124369EEF99B
:103A540002437EEE2402F508E43FF5092274EC12D9
:103A64001E3074FC121DC0EAFEEBFF8C0E8D0FEEAF
:103A74002405F508E43FF5097402121E2685088220
:103A8400850983123D151207C88A0C8B0DEA450D72
:103A94007003023B3DEE2402F50AE43FF50BA8183F
:103AA400A9198810891178101220437CFF7DFF79B1
:103AB4000D123D0F12089A7402121DD6123B4D705E
:103AC4000B85088285098312404A807A8E828F830F
:103AD400A3A3A3A3E0F512781212204785088285D8
:103AE4000983A3A312205A7512F1751302781212D6
:103AF400204378101220437409121E0C12205A74A9
:103B040009121E0CE0F9123D0B1209307409121D42
:103B1400D6E9FE700F7CF17D02123D0F12050AE911
:103B24007009802074166E70027E009002F2123DBD
:103B3400151213FEEE7004800B7E01850882850940
:103B440083124369EEF902437E123D54F510A3E05B
:103B5400F511EA45112274E8121E3074FE121DC0DC
:103B64008A168B178C148D15EA2405F50CE4351789
:103B7400F50DEA2402F50EE43517F50F850E82F5EE
:103B840083123D151205DC8A088B09750B007C0332
:103B94007D0079007AF17B02121392750A00E50820
:103BA40014F5100424FFF508E50934FFF5098054E1
:103BB4009002F1E0FA9002EEE0F8EA28F8E434002A
:103BC400F9E50898E50999500D9002F1E0F8E5103F
:103BD400C3989002EEF0E0F51275130078121220EB
:103BE40043124CA69002F2E02AFAA3E03400FB123E
:103BF400137A7402121DD69002EEE0F89002F1E0FE
:103C040028F0050A850C82850D83A3A31246204063
:103C140003023CF09002F1E0C39508E495094003E7
:103C2400023CF0AE0AEE2EFEE433FF123D2FAC1838
:103C3400AD19124CC1E439FB1207C88A128B13ACBC
:103C440012AD13EC4D701B750B01123D1F12436D29
:103C54009002F212326C60031213FEA90B7402027A
:103C64003FD8851682851783A3A3A3A3E0F50B7819
:103C74000B122047E4F512F5137812122043751243
:103C8400EE75130278121220439002EF12205A7438
:103C940007121E0C12205AA910850E82850F83125A
:103CA4003D151209307409121DD6E9F50B709B906D
:103CB40002F2123D446003023BB4E4F512F51378BA
:103CC400121220437CFF7DFF790F850E82850F83BE
:103CD400123D1512089A7402121DD6123D4A600351
:103CE400023BB4123D1F12404E023C617CF17D0246
:103CF400850E82850F83123D15120510E9600302BB
:103D04003C547900023C61AC0CAD0D850A82850BF4
:103D140083123D1922E0FAA3E0FB22123D2FE0FAC0
:103D2400A3E0F9EA85148285158322850C82850D2A
:103D340083E02EF8A3E03FF988828983229002EF82
:103D4400124E47E84922123D54F8A3E0F9E849220B
:103D54009002F2EAF0A3EBF09002F2E02274E8128F
:103D64001E3074FA121DC07404121E0C1239578CC2
:103D7400168D177404121E0CE02405F50EA3E0340E
:103D840000F50F7404121E0CE02402123FEC123DE5
:103D9400151205DC8A0A8B0B7F007E00A818A9196E
:103DA400880889097808122043850E82850F83A329
:103DB400A3A3A3E0F5088E097808122043E50E2496
:103DC40005F508E4350FF5097808122043850E82BD
:103DD400850F83A3A312401C1207C27406121DD6BA
:103DE4008A0C8B0D802912400DF00F12400DF00F3C
:103DF4009002EE124358122043124CA6EFF8123FE1
:103E0400E012137A7402121DD69002EEE02FFFE541
:103E14000C450D7003023E9C85188285198312445B
:103E24008EA3A3A3E0F9851482851583123D151290
:103E340007B0E9FEE50C2404F510E4350DF511EEA8
:103E440070507404121E0C124013F50878081220E6
:103E540047E4F508F50978081220437508EE75095A
:103E64000278081220439002EF12205A7407121E9F
:103E74000C12205AE50A24FAF9AC0CAD0D85148213
:103E8400851583123D151209307409121DD6E9FEF9
:103E9400603912402912436CEF7003023FC3900251
:103EA400F2E0F5F0EF849002F1F07CF17D028514EC
:103EB40082851583123D15120516E960099002F3F7
:103EC400123D151213FE7900023FD68F08EF703BA6
:103ED400E4F512F51378121220437CFF7DFF79116B
:103EE400851482851583123D1512089A7402121DD9
:103EF400D6124039700912402912404D023FD69023
:103F040002EEE024049002F2F080359002EEE0F834
:103F14009002F2E0FAE82404FCE43400FDEC6A4D7B
:103F24006003023EA2E50A24FAFAE50B34FFFBE53E
:103F34000828F8E43400F9EA98EB995003023EA209
:103F4400851082851183E0C0E09002F3E02FF8A38E
:103F5400E034008882F583D0E0F00F85108285116B
:103F640083A3E0C0E0123FFAD0E0F00F7402121E07
:103F7400168808890978081220437402121E0C124C
:103F8400205A850E82850F8312394B1207CE740492
:103F9400121DD68A0C8B0DEA450D7003023DEA749E
:103FA40002121E0CE0C0E0123FFAD0E0F00F7402DF
:103FB400121E0CA3E0C0E0123FFAD0E0023DF2EE84
:103FC40070027E0A850E82850F8312402F12436C85
:103FD400EEF97406121DD67F10021F029002F3E060
:103FE40028FAA3E03400FB22F514A3E03400F5150D
:103FF400851482F58322123FFE229002F3E02FFA09
:10400400A3E034008A82F58322123FFE74FF221259
:10401400417BA3A3A3A3E022124F38850E82850F10
:1040240083123D1922851082851183124E4785160D
:1040340082851783229002F3EAF0A3EBF09002F357
:10404400124E47E84922124372E8F0A3E9F07911CD
:104054002274EA121E3074FE121DC08A088B098C69
:10406400128D13EA2405FEE43509FFAC18AD198E50
:10407400828F83123D151207C88A0C8B0DEE24061D
:10408400F50EE43FF50FEA450D700302414DE508D6
:104094002402F50AE43509F50B8A828B83A3A3A3D2
:1040A400E0A2E55028851882851983123D1512096E
:1040B400248A108B11EA451160207912123D0B8578
:1040C4001082851183121E2EE9F50C707F850E82F5
:1040D400850F83E0600979528011750C0E806D851F
:1040E4000882850983A3A3A3A3E0F9E4F508F509ED
:1040F40078081220438E828F83A3A3E0F508780802
:104104001220438E828F83A3A3A312205A8E828F00
:1041140083124CA9123D0F1209367406121DD6E9FA
:10412400F50C7011850E82850F83E0702D123D0F02
:1041340012051C80257416650C7011750C0074181A
:10414400121E0C124177E48010750C01124E3F854B
:104154001282851383E8F0A3E9F0850E82850F832C
:10416400E0600479008002A90C7402121DD67F0E4F
:10417400021F0212417B22E0F8A3E0F58388822229
:1041840074EC121E3074F7121DC08A0A8B0B8C104B
:104194008D11EA2405FEE4350BFF750C00AC18AD57
:1041A400198E828F83123D151207C88A088B09EA7B
:1041B40045097003024343E50A2402F50A50020547
:1041C4000B8A828B83A3A3A3E0A2E5502F851882D8
:1041D400851983123D151209248A0C8B0DEA450DAD
:1041E400604F7912AC08AD09123D0F850C82850D24
:1041F40083121E2EE9F50C6003024346850A82856C
:104204000B83E0F508A3E0F509AA08FB120918EAF4
:104214004B70197AFF7BFF120918EA4B70030243B3
:10422400398A828B83E508F0A3E509F075080080DC
:1042340008750C0E02434605089002EBE0F8E50809
:10424400C398400302433985080E750F0074037840
:104254000E121DAD8A828B83A3A3E0250EF8A3E082
:10426400350F12470D70D08E828F8312436112393D
:10427400578E828F83A3A3124361123955EE24040F
:10428400F508E43FF509850882F583E0888289838F
:10429400A3A3A3A3F0A3E4F0EE2405F50EE43FF5F5
:1042A4000F850E82F583124361A3A3A3A31239558C
:1042B4007512077513007812122043EEFCEFFD749B
:1042C40004121E1E12137A7402121DD6E4F512781B
:1042D40012122043850882850983E0FC7D0079174A
:1042E400123D0F12089A7402121DD67407121E0C86
:1042F4001239577407121E0CE0FA4B603D85088290
:10430400850983124358122043850E82850F831238
:104314004CA912137A7402121DD67402121E2612AC
:104324003D0F120522E960267407121E0C123D157A
:104334001213FE8019750C098008750C1180037521
:104344000C01124E3F85108285118312436CA90C17
:1043540074098028E0F508750900780822123D19CF
:104364008882898322124372E8F0A3E9F022E0F8FC
:10437400A3E0F9850E82850F83227404121DD67F73
:104384000C021F0274EC121E3012447C751000EEF5
:104394002402F50CE43FF50D850C82F583123D15DE
:1043A4001209188A088B09EA4509700302446085DA
:1043B4000A82850B83E064016003024455AC08ADB6
:1043C40009AA0AAB0B12090CE9606E8508828509FB
:1043D400831236E2EE2406F50AE43FF50B8E828F53
:1043E40083A3A312205A8E828F83A3A3A3A3122094
:1043F4005A850A82850B8312205A79188E828F83FC
:1044040012448E123D151209367406121DD6E9F8AF
:10441400741668700B850A82850B83E4F0A38014FC
:10442400E860128E828F83123D15850E82850F837C
:10443400EAF0A3EBF088108018780E122043AC0841
:10444400AD09EEFAEFFB1209127402121DD6E9F55A
:1044540010AA08AB0912091EE510700E850C82859E
:104464000D83123D1512052880097416651070031A
:10447400751000A910024383EAFEEBFF8C0E8D0F2A
:10448400EE2405F50AE43FF50B22124F38850C8221
:10449400850D832274EA121E307508007509007EAA
:1044A400007F00750A00EC2402F510E43DF511804C
:1044B40035EC65087003ED6509600302454D88829B
:1044C4008983A3A3E06A7003A3E06B707C8882896C
:1044D40083A3A3A3A3124E43EE28FEEF39FFEA28D9
:1044E400FAEB39FB050A12461D503A850A0C750D84
:1044F400007403780C121DAD851082851183124659
:104504001012470D601FE508450970A58C088D0938
:10451400888289831236E088828983A3A3E02EFAF5
:10452400A3E03F80BEE50AC39402500302460B7524
:104534000800750900EE4F6010EEFAEFFB1213F855
:104544008A0E8B0FEA450F7005790002460D750B34
:10455400000245E0850B0C750D007403780C121DE8
:10456400AD851082851183E0250CF50CA3E0350D93
:10457400F50DE50C2406F514E4350DF515851482C6
:10458400F5831247126042E50C2404F512E4350D5C
:10459400F513851282F58312205AE50E2508FAE5F3
:1045A4000F3509FB12137A7402121DD68512828507
:1045B4001383E02508F508A3E03509F5098514827D
:1045C400851583123D151213FEE50B600D7C087DE5
:1045D400007900AA0CAB0D121392050BE50BC395E1
:1045E4000A5003024558851082851183124E438870
:1045F400828983A3A3A3A3A3A3E50EF0A3E50F12CB
:104604003273EEF0A3EFF0790102417212461422E4
:10461400E0250CF8A3E0350D229002EBE0F8E50A62
:10462400C3982274F0121E308A0E8B0F8C0A8D0BE5
:10463400750D00750C0080507916EE2406F508E41B
:104644003FF5098E828F83A3A312205A8E828F8313
:10465400A3A3A3A312205A85088285098312205A92
:10466400850E82850F83A3A3123D151209367406A5
:10467400121DD6E9F50D7416650D706C85088285DA
:104684000983E4F0A3F0050C9002EBE0F8E50CC319
:10469400985066AA0C8A0875090074037808121DDC
:1046A400AD850A82850B83A3A312475CE8FEE9FF6C
:1046B4008E828F831247126040EA2401F508E434A5
:1046C40000F5099002EBE065087002E509601488C2
:1046D400828983A3A3A3A3A3A3A3A3123D4460033A
:1046E40002463C791802463EE9609B124E3F741024
:1046F400121E0C12470412436CA90D7F08021F02FC
:10470400E0FAA3E0F5838A8222F988828983124F32
:1047140038EC4D2274F6121E307C0080010C90039C
:1047240048E0F8ECC398501E8C08750900740278B0
:1047340008121DAD124751E06A7003A3E06B70DDEF
:10474400E8FAE9FB80047A007B000247F49002E96E
:1047540012475C8882898322E02508F8A3E03509A2
:10476400F92274F2121E308A088B09750A00802718
:104774008E828F83A3A3A3A312326A60031213FE53
:104784007C087D007900EEFAEFFB1213928E828F83
:1047940083E4F0A3F0050A12461D5027850A0C7520
:1047A4000D007403780C121DAD850882850983A35E
:1047B400A3E0250CFEA3E0350DFF8E828F83123D0E
:1047C4004470AD85088285098374FFF0A3F0024F1D
:1047D4002C74F6121E301208CA8A828B83E5824535
:1047E4008370067A007B008007A3A3A3A3123D1560
:1047F4007F02021F0274F4121E3089088C828D839A
:10480400E06402703C124DE2FEA3E0F9EEF874029B
:104814006870037429697029750A02750B00780A97
:104824001220437410121E0C12205A7410121E0C03
:1048340012205AA9081212367406121DD6E9F980FC
:104844000279010232A774E8121E3074FB121DC0F3
:10485400E9851882851983F08A168B17ECFEEDFF23
:104864007510008E828F83A3A3A3E0A2E4502D745D
:104874001D121E0C123D151209248A828B83E582B7
:1048840045837003024C81790AEEFCEFFDAA16AB56
:1048940017121E2EE9F5106003024C84741F121EB9
:1048A4000CE0F508A3E0F5097421121E0CE0F50AEA
:1048B400A3E0F50B7423121E0CE0F50EA3E0F50F34
:1048C4008E828F83E064026003024C22A3124E4363
:1048D400850882850983A3858212858313EE2406C5
:1048E400F50CE43FF50D88828983124CC1F514E47C
:1048F40039F51578141220CD010000280128244927
:1049040007000228E949032857490029184B0129BF
:10491400434B0229E44A0329184B0429BC4B224C7B
:10492400E50E450F6003024C1D850C82850D831234
:104934004E43E8FAE9FB8A828B83E0850A82850B81
:1049440083124CCC1220438A828B83A3E0FCA3E025
:10495400024BA6E50E450F6003024C1D850A8285B5
:104964000B837401F0124CB6850882850983F07CB0
:10497400007D008E828F83A3A3A3A3E02401FAA366
:10498400E03400FB1207C8EA4B60408A828B83E064
:104994002402F8850A82850B83E028F0EA2404F8CF
:1049A400E43BF988828983E0851282851383124C63
:1049B400DA124CCC1220438A828B83A3124CA9E5D1
:1049C400082403FAE43509FB024BAB850A82850B04
:1049D40083E02404F07C047D007900AA12AB131256
:1049E4001392024C84E50E450F6003024C1D124CD9
:1049F400B6FEA3E0FF850A82850B837404F0EE857E
:104A04000882850983F0EF851282851383F074038D
:104A1400121E26EEFAEFFB1207C88A0C8B0DEA452C
:104A24000D7003024AC78A828B83A3A31236E074F3
:104A340001121E16880E890F780E12204374051277
:104A44001E0C12205A7CFF7DFF1207CE7404121D27
:104A5400D68B0FEA450F7033850C82850D83124C7B
:104A6400AD122043850C82850D83A312205A7C024B
:104A74007D007A227B831205CA7404121DD6E97064
:104A84000A7401121E0C74FFF0A3F08E828F83E06F
:104A940064027039750C02750D00780C1220438E77
:104AA400828F83A3124CA9E5082404FAE43509FB98
:104AB40012137A7402121DD6850A82850B83E024B0
:104AC4000280097401121E0CEEF0A3EFF0740112BF
:104AD4001E0C124C9B7401121E0C124C92024C17A9
:104AE400E50E450F6003024C1D850C82850D831273
:104AF4004F31AA16AB1712123C850A82850B8374B8
:104B040002F0850882850983EAF085128285138381
:104B1400EB024C1AE50E450F6003024C1D124CB615
:104B2400F8A3E0F9850A82850B837402F0E885080E
:104B340082850983F0E9851282851383024C1A85E4
:104B44000C82850D83123D15121374EAFAF8C3958D
:104B54000EE4950F405CE8650E450F70047A008002
:104B640021851882851983E0FCE50E2CFCE4350FC1
:104B7400FDC3EC98ED94005003E08005E50ECAC334
:104B84009AFAEA850A82850B83F08A0A750B007803
:104B94000A122043850C82850D83E0250EFCA3E0D8
:104BA400350FFDAA08AB0912137A7402121DD6023E
:104BB4004C84751007024C84E50E450F705B850C20
:104BC40082850D83124E43850A82850B837407F018
:104BD40088828983124C93124C8BE0851282851350
:104BE40083F0E82402FAE439FB8A828B83124C9B1B
:104BF4008A828B83124C92A3A3123272124CA0F0BD
:104C0400E82405F850010988828983124CA0A31274
:104C14004CDAA3A3A3A3F0806775100B8062741D04
:104C2400121E0C123D151208CA8A828B83E5824536
:104C340083604A124E43880C890DE8450D603E742A
:104C440025121E0CE0F5107810122047780E122061
:104C540043780A12204378081220437407121E0C6A
:104C6400E0F9EEFCEFFDAA16AB17850C82850D83E7
:104C7400121E2E7407121DD6E9F510800375100E4E
:104C8400A9107405023FD8F088828983A322A3E087
:104C940085088285098322124CE1F022124CE1A39B
:104CA400A3229002EF124F3822E0F50E750F007820
:104CB4000E22850C82850D8312417BE022E0FAA34B
:104CC400E0F8E4C8F9EA2822F08A828B83E0F50A46
:104CD400750B00780A22124C8B124CE122E08508F5
:104CE40082850983A3A32274EE121E3074FE121D62
:104CF400C08A088B09ECFEEDFF890AAC18AD19EEE9
:104D0400FAEFFB1207C88A0C8B0DEA450D700302FB
:104D14004DD3851882851983123D151208CA8A82DB
:104D24008B83E58245837003024DCEA3A3124E43C9
:104D3400880E890FE8450F7003024DCE7414121EBD
:104D44000CE0F510A3E0F511E50AF50B780B122041
:104D5400477419121E0C12205A7810122043741B27
:104D6400121E0CE0F9AC0CAD0DAA08AB09850E823D
:104D7400850F83121E2E7405121DD6E9F50B705291
:104D840074FE650A604C850C82850D83E0640270B4
:104D940041124DE2FAA3E0F9EAF874026870037470
:104DA4002969702E851082851183124CC1F50CE49B
:104DB40039F50D780C122043EEFCEFFDAA08AB097F
:104DC40012094E7402121DD68008750B0E800375ED
:104DD4000B01A90B7402121DD67F0A021F02A31233
:104DE4004E4788828983E02274F6121E3074FE12C4
:104DF4001DC0740C121E0C124E43E88518828519CE
:104E040083F07401121E0CE9F0E4F508F509780842
:104E140012204375080278081220437404121E16E7
:104E240088088909780812204379FE120936740625
:104E3400121DD67402121DD60247F48E828F83127D
:104E44004E4722E0F8A3E0F92274F7121E30EAFE7E
:104E5400EBFF8908900306124CA912123CEA540293
:104E6400600BA908EEFAEFFB1207BC800279017F00
:104E740001021F0274F2121E3074FE121DC0EAFEFB
:104E8400EBFF890A7401650A60147402650A600301
:104E9400024F277901120B6AE96003024F27EEFAE9
:104EA400EFFB120918EA4B600312091EA818A9198E
:104EB4008808890978081220437508027509007862
:104EC4000812204375081E75098378081220437C54
:104ED400FF7DFF7A017B001207C27406121DD68083
:104EE40038850882850983A3A3A3A3A3A3124F3102
:104EF400EEFAEFFB121224E4F50CF50D780C1220F7
:104F0400437402121E0C12205A7CFF7DFFAA08ABC8
:104F1400091207CE7404121DD68A088B09E50845C8
:104F24000970BE7402121DD67F06021F0212417B55
:104F3400124F3822E0FCA3E0FD2274F4121E308AE2
:104F4400088B09ECFEEDFF90164FE0F4604B7A09F4
:104F54007B0012139EEA4B60408A828B8374B1F00B
:104F6400A3E4124FA0F08A828B83A3A3E508F0A3E5
:104F7400E509124FA0A3EEF0A3EFF0740C121E0C7F
:104F8400124E438A828B83A3A3A3A3A3A3A3124396
:104F94006C90164FE0F91213AA0232A7F08A828BA2
:104FA40083A3A3A3A32274F0121E3074FA121DC0AB
:104FB4008909ECFEEDFF7508008A0A8B0B780A124A
:104FC4002087000410D051ED4F0B5025503D505B0D
:104FD4005073509650AE50C250EC50675178518F78
:104FE40051AA51D051D05102517401650960030294
:104FF40051CB8E828F83E0F8C3940340030251CBDC
:10500400E890173B0251A77402650960030251CB73
:105014008E828F8312520C90173CE8F0A3E9025160
:10502400A77401650960030251CB1251FD400302CC
:1050340051CBE89007490251A77401650960030246
:1050440051CB8E828F83E0F8C3940540030251CB89
:10505400E890074A0251A77401650960030251CB25
:105064001251FD40030251CBE890074B0251A77443
:1050740010650960030251CB750A10750B00780A9C
:105084001220437A4C7B0712137A7402121DD60243
:1050940051F17401650960030251CB1251FD4003C3
:1050A4000251CBE890075C0251A7740165096003C3
:1050B4000251CB8E828F83E090173F0251A7740474
:1050C400650960030251CB8E828F83780C121C8495
:1050D400908299780C12160D50030251CB90075E02
:1050E400780C121C930251F1E960030251CB1207B0
:1050F40062E970051211E880559007F18061740728
:10510400650960030251CB750A06750B00780A1213
:1051140020438E828F83A3AC82AD837402121E1E41
:105124001213807402121DD67C007D00AA18AB19DC
:105134008E828F83E0F9121194E9FEC3940A40032E
:105144000251EE120762E9700CEEF91211EE795079
:105154001214BE806D74F22EF582E43407F5837464
:1051640001804074016509705E1251FD5059E89048
:10517400075D802F74016509704D8E828F83E0F87E
:10518400C3940A5042E890173E8018740165097070
:10519400368E828F83E0F874F928C3940A5028E885
:1051A400901740F0804774016509701B9007F0E088
:1051B400F88E828F83E09007F0F0E87030E06401AD
:1051C400702B1211DC80267508188021C3EA9427FD
:1051D400EB9400501574026509700F8E828F831250
:1051E4005CD21205E2E9F5088003750802A9087487
:1051F40006121DD67F08021F028E828F83E0F8C339
:10520400940222A9080255AAE0F8A3E0F92274F056
:10521400121E3074B1121DC08C0C8D0D908250740E
:1052240020121E267406121CD37420121E2612117C
:1052340094E9F508745F121E0CE0F50AE9C3940AB8
:10524400400302539075F006E9A4F5097441121E57
:10525400267A0E74202509F91214B8E97009744DE0
:10526400121E0CE0FF80027F0090173BE064027086
:1052740005750E018003750E007408650A700474C8
:1052840022800274212509F50F7C1B7D00790074AE
:1052940026121E1E121392EFA2E0E433FE742612AD
:1052A4001E267A1BA90F1214B8E970257440121E29
:1052B4000CE024F9C3940A5018780E12204774277E
:1052C400121E26EEF9AA0CAB0D1206847401121DEF
:1052D400D67C147D007900740C121E1E1213927475
:1052E4000C121E267A1074242509F91214B8E970D8
:1052F400307C1079FF740C121E1E1213F2E9702117
:10530400741C121E0CAC82AD837A0474252509F931
:105314001214B8740C121E26EEF9AA0CAB0D120668
:105324006CAC18AD197A0C74702508F91214B8E92C
:105334007049AA18AB191211C47E00EE75F003A4CB
:10534400F8A9F0851882851983E58228F8E5831287
:105354005AEB125CCC601D88828983A3A3E0F50814
:105364007509007808122043AA0CAB0D12093C748D
:1053740002121DD60EEEC3940440C0EFA2E1500CFD
:10538400900748E0F9AA0CAB0D1209427404650AAF
:10539400702890173BE0640270207A0090075CE06C
:1053A40060027A01900749E0600478048002780082
:1053B400E84AF9AA0CAB0D1207387900744F025170
:1053C400F574F7121E30120762E9704F9007F1E08E
:1053D400640170151211E89007F1E4F07C0AFDF9FC
:1053E4007AF27B07121392802A750800A80874F2D7
:1053F40028FEE43407FF8E828F83E06401700BA9DA
:10540400081211EE8E828F83E4F00508E508C39438
:105414000A40D979501214BE1211DC025E0A74F0EB
:10542400121E3074F0121DC0EAFEEBFF8C088D09C9
:10543400750A0AE9600C14600914603B14607D026B
:1054440055181211D6E9F50AC3940A4003025518F7
:10545400E50845097003025518750C06750D0078AA
:105464000C122043EEFCEFFDAA08AB0912137A7468
:1054740002121DD6025518750C00750E06750F0024
:10548400780E122043EEFCEFFDE50C75F00EA4F847
:10549400A9F0746A28FA740739FB12138C74021287
:1054A4001DD6E9700B050CE50CC3940A506680CA3E
:1054B400850C0AE50AC3940A505A8049750C00AC5D
:1054C40018AD197A1075F006E50CA42423F912140A
:1054D400B8E9701C7C1079FFAA18AB191213F2E911
:1054E400700EEEFCEFFDAA18AB19120648E9600B2A
:1054F400050CE50CC3940A501B80C4850C0AE50A0C
:10550400C3940A500FE50845096009AA08AB09A924
:105514000A1211D0A90A74100251F574F4121E3043
:10552400890975081574FF6A700374FF6B70277E10
:1055340000AC097A027B00EEF91211B2E96003753E
:1055440008000EEEC3940A40E8E50960537A007B34
:1055540012120B8E804A120B5E8A0A8B0BAE0AAFB4
:105564000BEE4F60387C007D00EE2405FAE43FFB2F
:105574008E828F83A3A3A3A3E0F9121194E9F9C344
:10558400940A500CAC097A027B001211B27508001F
:10559400E509600CEEFAEFFB1212008003750814A3
:1055A400025207121DD67F04021F0274F2121E302B
:1055B400ECFEEDFF750815740E121E0CE0F50AA33F
:1055C400E0F50B74FF6A700374FF6B7021750900BA
:1055D400AC0AAD0BEEFAEFFBA9091211B8E96003AE
:1055E4007508000509E509C3940A503F80E2120BCF
:1055F4005E8A828B83E5824583602D7C007D00E595
:10560400822405FAE43583FBA3A3A3A3E0F91211D2
:1056140094E9F9C3940A5013AC0AAD0BEEFAEFFB0C
:105624001211B87508008003750814A908025AB34A
:10563400C082C083900762EAF0A3EBF0900748E0D1
:10564400FC7D007A267B001205E2900748E0F912FF
:1056540008A602612C74EF121E3074EC121DC0EA0D
:10566400FEEBFFEE240CF50CE43FF50DEE2405F5FE
:105674000EE43FF50FEE2409F50AE43FF50BEE24A2
:1056840003F508E43FF5098E828F83A3A3E024FA8F
:10569400700302592F24FD70030258511470030241
:1056A400572F14601024FD70030258251470030250
:1056B40058880259351264476049E0F5838882129C
:1056C400520C880E890FE8450F6038850C82850DD1
:1056D40083E0F50C780C122047EE240BF582E43FAE
:1056E400F583E0F9850A82850B83125CD20A0A0AE3
:1056F400AB09850E82850F83121E2E7401121DD6EE
:10570400025935850A82850B8312205A90075E124E
:105714001CA212067E7402121DD6E97003025935CA
:105724007901850A82850B830258FF7510008E82E9
:105734008F83A385820A85830BE060030257F28579
:105744000E82850F83E0A2E040030257F29007FC2B
:1057540012644A60030257F27C0E7D007900AA1895
:10576400AB19121392850C82850D831260F7EA4BF4
:105774006010750C06750D00780C122043EA241095
:10578400801B1260F1120B5EEA4B700302593575EF
:105794000C06750D00780C122043EA2405FCE43B4A
:1057A400FD7402121E1E12137A7402121DD6850E87
:1057B40082850F83E0A2E25004D2F08002C2F0A2FC
:1057C400F0E433F8740C121E0CE048F0EEFCEFFD2C
:1057D400AA18AB191211CAE970117A027B0090075A
:1057E40048E0F91213CE7900025937751015126486
:1057F4004770030259351260BB7003025935850A9C
:1058040082850B83E0FC7901125941121E2EE510AA
:105814007003025935FC79031260F11260A1025938
:105824002A12644770030259351260CE12520C8951
:105834000BE8450B70030259358E828F83A3E0FC7D
:1058440079021260F18882850B8302592A7C007DDB
:1058540000EE2404FAE43FFB850882850983E0F91D
:10586400121194E9F8C3940A4003025935EE240A4C
:10587400FCE43FFD7A0475F006E8A42425F912142B
:10588400B20259351260F190075DE0600790173E4F
:10589400E0F9806A90173BE0700479058060120B90
:1058A4005E8A0C8B0DA80CA90DE8497003025935CA
:1058B400E82404F50CE439F50D8E828F83A3A3A3A9
:1058C400A3A3A3A3E0A2E0503A850C82850D83E054
:1058D400FE6030850A82850B83A3E0540270247431
:1058E4000E121E26E82405FAE439FBEEF91211948F
:1058F400E9701079038508828509831260F712061E
:1059040078802EAC0EAD0F850C82850D83E0F912E4
:1059140060F112120C12644760171260BB60127CB3
:10592400007900125941121E2E80061260F11211E4
:105934008E79017414121DD67F09021F0285088214
:10594400850983E0FAA3E0FB8E828F832274F5122B
:105954001E3074F2121DC0EAFE8C0A75F006E9A42A
:105964002420F508AC18AD197A0EF91214B8E970B0
:10597400467C0679FFAA18AB191213F2E970387441
:105984000C121E0C1260F7EAF8E50A6005EEC8482E
:105994008004EEF4C858F8EA687001EB6015740CE2
:1059A400121E0CE8F0A3E4F0AC18AD197A0EA908A5
:1059B4001214B2790180027900740E121DD67F038D
:1059C400021F0274F2121E3074E6121DC0890A8A84
:1059D400088B09ECFEEDFF740C121E267A0E75F08E
:1059E40006E9A42420F91214B8E96003025AAC7C35
:1059F4000679FF740C121E1E1213F2E96003025A98
:105A0400AC7470250AF50BAC18AD197A0CF91214A4
:105A1400B8E96003025AA8AA18AB191211C4E50820
:105A24004509701D7C0C7900AA18AB191213F2E910
:105A340070727C0C7D007900AA18AB191213928045
:105A440051AC18AD19AA08AB091211BE8A0C8B0D02
:105A5400A80CA90DE8497022EE4F604CAC18AD19A2
:105A64007A007B001211BEEAF8EBF9EA4B60398840
:105A7400828983E508F0A3E509F0125B27FAEE6A50
:105A84007001EF601FEEF04F700888828983E4F0A4
:105A9400A3F0AA18AB191211C4AC18AD197A0CA949
:105AA4000B1214B2790180027900741A121DD67F88
:105AB40006021F0274F7121E307E00EE75F003A476
:105AC400F8A9F0EC28F8ED125AEBE06A7003A3E0B1
:105AD4006B7006E8FAE9FB800B0EEEC3940440DB1E
:105AE4007A007B00025E0A39F9888289832274F77E
:105AF400121E307C00EC75F003A4F8A9F0EA28F833
:105B0400EB125AEBE0F4FEA3E0F4FF88828983EE03
:105B1400F0A3EFF0125B27F4F00CECC3940440D52F
:105B2400025E0AE82402F582E439F583E02274F483
:105B3400121E3074F4121DC0EAFEEBFF8C088D09AE
